:020000040800F2
:1000000000000824ED24000801230008092300084B
:100010001123000819230008212300080000000014
:1000200000000000000000000000000031A90008EE
:10003000292300080000000081AB00085985000852
:100040003D2500083D2500083D2500083D25000808
:100050003D2500083D2500083D2500083D250008F8
:100060003D2500083D2500083D2500083D250008E8
:100070003D2500083D2500083D2500083D250008D8
:100080003D2500083D2500083D2500083D250008C8
:100090003D2500083D2500083D2500083D250008B8
:1000A0003D2500083D2500083D2500083D250008A8
:1000B0003D2500083D2500083D2500083D25000898
:1000C0003D2500083D2500083D2500083D25000888
:1000D0003D250008392300083D2500083D2500087E
:1000E0003D2500083D250008000000003D250008D2
:1000F0003D2500083D2500083D2500083D25000858
:100100003D2500083D2500083D2500083D25000847
:100110003D2500083D2500084D2300083D25000829
:100120003D2500083D2500083D2500083D25000827
:100130003D2500083D2500083D2500083D25000817
:100140003D2500083D2500080000000000000000DB
:100150003D2500083D2500083D2500083D250008F7
:100160003D2500083D2500083D2500083D250008E7
:100170003D2500083D2500083D2500083D250008D7
:100180003D2500083D2500083D2500083D250008C7
:100190003D2500083D2500083D2500083D250008B7
:1001A0003D2500083D2500083D2500083D250008A7
:1001B0003D2500083D2500083D2500083D25000897
:1001C0003D2500083D2500083D2500083D25000887
:1001D0003D2500083D2500083D2500083D25000877
:1001E0003D2500083D2500083D2500083D25000867
:1001F0003D2500083D2500083D2500083D25000857
:100200003D2500083D2500083D2500083D25000846
:100210003D2500083D2500083D2500083D25000836
:100220003D2500083D2500083D2500080000000090
:100230003D2500083D2500083D2500083D25000816
:100240003D2500083D2500083D2500083D25000806
:100250003D2500083D2500083D2500083D250008F6
:100260003D2500083D2500083D2500083D250008E6
:100270003D2500083D2500083D2500083D250008D6
:100280003D2500083D2500083D2500080000000030
:080290003D2500083D25000892
:1002A00010B5054C237833B9044B13B10448AFF3B0
:1002B00000800123237010BDD8020024000000003C
:1002C00074ED020808B5034B1BB103490348AFF3B3
:1002D000008008BD00000000DC02002474ED02086C
:1002E00010F8012B11F8013B012A28BF9A42F7D0E0
:1002F000D01A70470000000000000000000000005D
:1003000001F0FF01102A2BDB10F0070F08D010F8C6
:10031000013B013A8B422DD010F0070F42B3F6D1CA
:10032000F0B441EA012141EA014122F007047FF0E3
:1003300000070023F0E80256083C85EA010586EA3A
:10034000010685FA47F5A3FA87F586FA47F6A5FA76
:1003500087F68EB9EED1F0BC01F0FF0102F0070282
:1003600032B110F8013B013A83EA010313B1F8D12D
:100370000020704701387047002D06BF354603380E
:10038000073815F0010F07D1013015F4807F02BF47
:10039000013015F4C03F0130F0BC0138704700BF98
:1003A000034613F8012B002AFBD1181A01387047B5
:1003B00081F0004102E000BF83F0004330B54FEA16
:1003C00041044FEA430594EA050F08BF90EA020F83
:1003D0001FBF54EA000C55EA020C7FEA645C7FEA16
:1003E000655C00F0E2804FEA5454D4EB5555B8BF39
:1003F0006D420CDD2C4480EA020281EA030382EAAA
:10040000000083EA010180EA020281EA0303362D3B
:1004100088BF30BD11F0004F4FEA01314FF4801C0E
:100420004CEA113102D0404261EB410113F0004F20
:100430004FEA03334CEA133302D0524263EB4303D7
:1004400094EA050F00F0A780A4F10104D5F1200E75
:100450000DDB02FA0EFC22FA05F2801841F10001D0
:1004600003FA0EF2801843FA05F359410EE0A5F1A4
:1004700020050EF1200E012A03FA0EFC28BF4CF0D5
:10048000020C43FA05F3C01851EBE37101F000458B
:1004900007D54FF0000EDCF1000C7EEB00006EEB98
:1004A0000101B1F5801F1BD3B1F5001F0CD3490822
:1004B0005FEA30004FEA3C0C04F101044FEA445279
:1004C00012F5800F80F09A80BCF1004F08BF5FEA00
:1004D000500C50F1000041EB045141EA050130BDE0
:1004E0005FEA4C0C404141EB0101013C28BFB1F5F2
:1004F000801FE9D291F0000F04BF01460020B1FA3D
:1005000081F308BF2033A3F10B03B3F120020CDA0F
:100510000C3208DD02F1140CC2F10C0201FA0CF0ED
:1005200021FA02F10CE002F11402D8BFC2F1200C52
:1005300001FA02F120FA0CFCDCBF41EA0C01904008
:10054000E41AA2BF01EB0451294330BD6FEA040451
:100550001F3C1CDA0C340EDC04F11404C4F120023C
:1005600020FA04F001FA02F340EA030021FA04F34E
:1005700045EA030130BDC4F10C04C4F1200220FAA5
:1005800002F001FA04F340EA0300294630BD21FAE3
:1005900004F0294630BD94F0000F83F4801306BFA9
:1005A00081F480110134013D4EE77FEA645C18BF9D
:1005B0007FEA655C29D094EA050F08BF90EA020F34
:1005C00005D054EA000C04BF1946104630BD91EA2C
:1005D000030F1EBF0021002030BD5FEA545C05D12F
:1005E0004000494128BF41F0004130BD14F580046E
:1005F0003CBF01F5801130BD01F0004545F0FE41E2
:1006000041F470014FF0000030BD7FEA645C1ABF16
:10061000194610467FEA655C1CBF0B46024650EA4D
:10062000013406BF52EA033591EA030F41F4002179
:1006300030BD00BF90F0000F04BF0021704730B5FF
:100640004FF4806404F132044FF000054FF00001D4
:1006500050E700BF90F0000F04BF0021704730B595
:100660004FF4806404F1320410F0004548BF40426A
:100670004FF000013EE700BF42004FEAE2014FEABF
:1006800031014FEA02701FBF12F07F4393F07F4F9A
:1006900081F06051704732F07F4208BF704793F09D
:1006A0007F4F04BF41F40021704730B54FF46074B0
:1006B00001F0004521F000411CE700BF50EA0102B3
:1006C00008BF704730B54FF000050AE050EA01025C
:1006D00008BF704730B511F0004502D5404261EBCC
:1006E00041014FF4806404F132045FEA915C3FF40D
:1006F000D8AE4FF003025FEADC0C18BF03325FEAAA
:10070000DC0C18BF033202EBDC02C2F1200300FA5A
:1007100003FC20FA02F001FA03FE40EA0E0021FA7F
:1007200002F11444BDE600BF53B94AB9002908BF1D
:1007300000281CBF4FF0FF314FF0FF3000F0A2B98E
:10074000ADF1080C6DE904CE00F03EF8DDF804E0F0
:10075000DDE9022304B0704708B502460B4643ECBE
:10076000172BB5EEC07BF1EE10FA03D4BDE80840BC
:1007700000F00AB8B1EE477B51EC170B00F004F81B
:10078000404261EB410108BD9FED0B6B41EC170B43
:100790009FED0B5B27EE066BBCEEC66BB8EE464BCF
:1007A000A4EE457BFCEEC77B16EE101A17EE900AFE
:1007B000704700BFAFF30080000000000000F03D74
:1007C000000000000000F0412DE9F047089D0C46B4
:1007D000002B4ED194468C458646B2FA82F262D9FD
:1007E0004AB1C2F12003914020FA03F30CFA02FC53
:1007F000194300FA02FE4FEA1C471FFA8CF6B1FBC0
:10080000F7F44FEA1E4307FB141143EA014304FBCC
:1008100006F199420AD91CEB030304F1FF3080F082
:100820001281994240F20F81023C6344591A1FFA27
:100830008EF3B1FBF7F007FB101143EA014300FB15
:1008400006F69E420AD91CEB030300F1FF3180F04B
:10085000FC809E4240F2F980634402389B1B40EAD0
:10086000044000211DB1D3400022C5E90032BDE89B
:10087000F0878B4205D90DB1C5E90001002108467A
:10088000F5E7B3FA83F1002946D1A34202D390429F
:10089000C0F0F080861A64EB03030120002DE6D03F
:1008A000C5E90063E3E7002A40F09080A1EB0C0467
:1008B0004FEA1C481FFA8CF70121B4FBF8F64FEA07
:1008C0001E4308FB164443EA044307FB06F0984224
:1008D00008D91CEB030306F1FF3402D2984200F260
:1008E000CD8026461C1A1FFA8EF3B4FBF8F008FBE5
:1008F000104443EA044300FB07F79F4208D91CEB6E
:10090000030300F1FF3402D29F4200F2B080204680
:10091000DB1B40EA0640A5E7C1F120068B4022FA26
:1009200006F71F4320FA06FC04FA01F343EA0C031E
:10093000F44000FA01F8380C4FEA1349B4FBF0FE1A
:100940001FFA87FC00FB1E4449EA04440EFB0CF925
:10095000A14502FA01F20AD93C190EF1FF3A80F0E2
:100960008480A14540F28180AEF1020E3C44A4EBAC
:1009700009041FFA83F9B4FBF0F300FB134449EABE
:10098000044403FB0CFCA44507D93C1903F1FF30D8
:1009900067D2A44565D9023B3C4443EA0E40A0FB24
:1009A0000293A4EB0C049C42CE469C4651D34ED0FD
:1009B00055B1B8EB0E0364EB0C0404FA06F6CB4019
:1009C0001E43CC40C5E90064002150E7C2F120037A
:1009D00020FA03F10CFA02FC24FA03F394400C43CE
:1009E0004FEA1C4800FA02FE1FFA8CF7B3FBF8F03E
:1009F00008FB1031230C43EA014300FB07F1994245
:100A000008D91CEB030300F1FF362CD299422AD9F6
:100A1000023863445B1AA4B2B3FBF8F108FB11334C
:100A200044EA034401FB07F3A34208D91CEB040486
:100A300001F1FF3613D2A34211D902396444E41AFA
:100A400041EA004139E70446F0E6084606E7C845B2
:100A5000AED2B9EB020E63EB070C0138A8E73146C2
:100A6000EDE7034699E73046D4E7D6467FE763448F
:100A700002384DE70646234608460FE7023E634428
:100A800030E700BF704700BF80B582B000AF78602C
:100A9000104B114A1A600F4B1B681049184600F0A2
:100AA00090FB0F4B1B78002B10D00E4B1B680133B3
:100AB0000C4A1360074B1B680A4A12680A49184619
:100AC00000F07FFB4FF4B97007F03CFE0A2007F0FE
:100AD00039FEE6E7F40200240C07002490ED02083A
:100AE000F8020024FC020024A0ED020880B485B0C6
:100AF00000AFF860B9607A603B60FB68BA681A6062
:100B0000FB687A685A60FB683A689A60FB68BA6961
:100B1000DA60FB68FA691A61FB683A6A5A61FB6835
:100B20007A6A9A61FB681C3307F1280292E8030095
:100B300083E80300FB68243307F1300292E80300E6
:100B400083E80300FB682C3307F1380292E80300C6
:100B500083E80300FB6800225A63FB6800229A6363
:100B6000FB689B6B5A1CFB689A63FB689A6BFB687B
:100B7000DA63FB68002283F84020FB6818461437CC
:100B8000BD465DF8047B704790B5BBB00AAF786096
:100B90000023C7F890300023C7F894300023C7F82B
:100BA00098300023C7F89C300023C7F8A0300023FA
:100BB000C7F8A43007F14C0408AA07F1A00393E892
:100BC000030082E8030006AA07F1980393E80300F4
:100BD00082E8030004AA07F1900393E8030082E887
:100BE000030000230393002302934FF47A730193CD
:100BF000032300930023002200212046FFF776FF05
:100C00000023C7F8A8300023C7F8AC300023C7F88A
:100C1000B0300023C7F8B4300023C7F8B830002341
:100C2000C7F8BC3007F1080408AA07F1B80393E835
:100C3000030082E8030006AA07F1B00393E803006B
:100C400082E8030004AA07F1A80393E8030082E8FE
:100C5000030000230393002302934FF47A7301935C
:100C6000032300930023022201212046FFF73EFFC9
:100C70000A2007F067FDFBE780B58EB002AF786011
:100C8000214B1B78002B3AD0204BD3ED007AB7EEE6
:100C9000007A77EE877A1D4BC3ED007A1C4A07F184
:100CA0000C0307CA83E807000023009307F10C0335
:100CB0000ECB184800F06EFA174A07F1180307CA5E
:100CC00083E8070007F118030ECB124800F062FA20
:100CD000124A07F1240307CA83E807000B4BD3ED40
:100CE000007AB7EEE77A8DED007B07F124030ECB97
:100CF000084800F04FFA40F2122007F023FD32209E
:100D000007F020FDBCE700BF00030024040300241B
:100D1000B8ED02080C070024D0ED0208E4ED02084B
:100D200080B400AF3D4BD3F888303C4A43F47003A5
:100D3000C2F88830394B1B69384A43F010031361FD
:100D4000374B1B6803F00F03062B07D8344B1B6887
:100D500023F00F03324A43F007031360314B1B6843
:100D6000304A43F0010313602E4B00221A612D4BD1
:100D70001A682C492C4B13400B60294B1B6803F05D
:100D80000803002B07D0264B1B6823F00F03244ACF
:100D900043F007031360234B00229A61214B00228A
:100DA000DA61204B00221A621E4B204A9A621D4BC8
:100DB0001F4ADA621B4B1F4A1A631A4B00225A63FE
:100DC000184B1C4A9A63174B0022DA63154B194AD9
:100DD0001A64144B00225A64124B1B68114A23F404
:100DE000802313600F4B00221A66134B5B6A124A72
:100DF00043F480435362114B1A68114B1340B3F113
:100E0000005F02D20F4B01221A600F4B43F2D20255
:100E10001A6000BFBD465DF8047B704700ED00E03E
:100E200000200052004402587FEDF6EA0002020260
:100E30000000FF0180020101C00000580010005CAA
:100E40000000FFFF088100510040005280B485B0CF
:100E500000AF78600023FB600BE0FB687A68134406
:100E60001B785C2B02D1FB68023301E0FB68013385
:100E7000FB60FB687A6813441B78252B05D0FB6860
:100E80007A6813441B78002BE7D1FB687A68134417
:100E90001B78252B02D04FF0FF33FB60FB68184610
:100EA0001437BD465DF8047B704780B584B000AF51
:100EB00078603023FB737868FFF7C8FFB860BB68C1
:100EC000B3F1FF3F2ED0BB6801337A6813441B781F
:100ED000FB73FB7B642B25D0FB7B692B22D0FB7B38
:100EE000752B1FD0FB7B662B1CD0FB7B462B19D0B0
:100EF000FB7B652B16D0FB7B452B13D0FB7B672B35
:100F000010D0FB7B472B0DD0FB7B632B0AD0FB7BE8
:100F1000732B07D0FB7B782B04D0FB7B582B01D0A5
:100F20003023FB73FB7B18461037BD4680BD80B570
:100F300084B000AF78607B68002B05D172B600BF2B
:100F400001F0DCF800BFFDE77B681B7A012B05D9B7
:100F500072B600BF01F0D2F800BFFDE7EFF31182D7
:100F60004FF0500383F31188BFF36F8FBFF34F8FA0
:100F7000FA60BB60FA687B681B7A591CC8B2796852
:100F8000087219467B6843F8212000BF1037BD4620
:100F900080BD80B584B000AF78607B68002B05D140
:100FA00072B600BF01F0AAF800BFFDE77B681B7AAC
:100FB000013BDAB27B681A727B681B7A012B05D978
:100FC00072B600BF01F09AF800BFFDE77B681B7A9C
:100FD0001A467B6853F82230FB60FB6883F3118864
:100FE00000BF00BF1037BD4680BD000080B58AB08D
:100FF00000AFF860B9607A6000237B62FB68184636
:10100000FFF795FFFB6802226149184600F044FC97
:10101000FB680C22B968184600F03EFCBB685B68B0
:10102000B3F1FF3F00F0A780BB681B7A583B202B31
:1010300000F2A08001A252F823F000BFE5100008E2
:101040007511000875110008751100087511000868
:101050007511000875110008751100087511000858
:1010600075110008751100087511000811110008AC
:10107000751100083D1100083D11000875110008A8
:101080007511000875110008751100087511000828
:101090007511000875110008751100087511000818
:1010A0007511000875110008C110000875110008BD
:1010B000E51000087511000875110008E51000081A
:1010C0007B681A1D7A601B683B62386AFFF768F913
:1010D000034601337B62FB687A6A396A184600F07E
:1010E000DBFB48E004237B627B681A1D7A601B6887
:1010F000FB6107F11C033B62FB687A6A396A184698
:1011000000F0CAFBFB680021184600F085FB32E0C6
:1011100004237B627B681A1D7A601B68BB6107F140
:1011200018033B62FB687A6A396A184600F0B4FB20
:10113000FB680021184600F06FFB1CE008237B626F
:101140007B68073323F0070303F108027A60D3E9D1
:101150000023C7E9042307F110033B62FB687A6AA6
:10116000396A184600F098FBFB680021184600F029
:1011700053FB00E000BFFB681846FFF70AFF7B6ADD
:101180000E337B627B6A18462837BD4680BD00BFA0
:10119000C4EF02080EB480B585B000AF786007F1E7
:1011A0002803BB60BA6807F11C017868FFF71EFFCF
:1011B000F860FB6818461437BD46BDE8804003B0B0
:1011C00070470EB480B589B000AF786007F1300386
:1011D000BB61FB6AFB60F86AFFF738FE03463B61C0
:1011E000F86AFFF762FE03463B7507F10C03BA6924
:1011F00019467868FFF7FAFEF861FB69184624374C
:10120000BD46BDE8804003B0704780B584B000AFF4
:10121000F860B9601346FB71BB68002B0FD009E082
:10122000FB68186A0A230122B96805F01FFCBB6835
:101230000133BB60BB681B78FA799A42F0D100BFDA
:101240001037BD4680BD000080B59AB002AF78600F
:101250000B46FB701023BB6500233B6207F12403A0
:1012600000221A605A609A60FB78732B19D1002310
:10127000FB7707E07B68186A07F11F010A23012248
:1012800005F0F4FB7B68184600F053FB0346FB7740
:10129000FB7F002B14BF01230023DBB2002BE9D11D
:1012A0001DE10023FB650023FB6007F11003002212
:1012B0001A605A609A60FB78583B202B00F2EE804F
:1012C00001A252F823F000BFD11300089D140008BA
:1012D0009D1400089D1400089D1400089D1400082A
:1012E0009D1400089D1400089D1400089D1400081A
:1012F0009D1400089D140008131400089D14000894
:1013000055140008551400089D1400089D14000889
:101310009D1400089D1400089D1400089D140008E9
:101320009D1400089D1400089D1400089D140008D9
:101330009D1400089D1400089D1400084D1300081A
:101340009D1400089D1400088F1300080523FB64FA
:101350000DE07B68184600F0ECFA03461946FB6D79
:101360005A1CFA6560333B440A4603F8542CFA6D64
:10137000FB6C9A42EDD307F10C03BB64BB6C1B689A
:1013800007F12000584A102127F0E0F987E00523F3
:101390007B650DE07B68184600F0CBFA03461946E2
:1013A000FB6D5A1CFA6560333B440A4603F8542C23
:1013B000FA6D7B6D9A42EDD307F10C033B653B6DF3
:1013C0001B6807F12000494A102127F0BFF966E0A9
:1013D00005237B630DE07B68184600F0AAFA0346FC
:1013E0001946FB6D5A1CFA6560333B440A4603F804
:1013F000542CFA6D7B6B9A42EDD307F10C033B63DF
:101400003B6B1B6807F12000394A102127F09EF939
:1014100045E00523FB630DE07B68184600F089FA80
:1014200003461946FB6D5A1CFA6560333B440A4675
:1014300003F8542CFA6DFB6B9A42EDD307F10C03C1
:10144000BB63BB6B1B6807F120002A4A102127F001
:101450007DF924E009237B640DE07B68184600F0E9
:1014600068FA03461946FB6D5A1CFA6560333B4423
:101470000A4603F8542CFA6D7B6C9A42EDD307F1BF
:101480000C033B643B6CD3E9002307F12000CDE95A
:101490000023194A102127F059F900E000BFFB6D25
:1014A000002B1CD0FB6D0F2B19D80023FB650CE023
:1014B0007B68186A07F12002FB6DD1180A2301220C
:1014C00005F0D4FAFB6D0133FB6507F12002FB6DDB
:1014D00013441B78002B02D0FB6D0F2BE8D900BF03
:1014E0006037BD4680BD00BFF0ED0208F4ED020894
:1014F000F8ED0208FCED020800EE020880B584B0A9
:1015000000AF78600023FB6016E07B68184600F0AF
:1015100010FA03461946194AFB6813441B7899428E
:101520000CBF01230023DBB2002B03D0FB68013387
:10153000FB6001E00023FB607B68184600F02BFA9B
:10154000034683F00103DBB2002B04D0FB68022BBF
:1015500001D0012300E00023002BD6D1FB68022B31
:1015600001D00023FB60FB68002B14BF0123002384
:10157000DBB218461037BD4680BD00BFC4EF02087D
:1015800080B588B000AF78607B681846FFF7CFFC65
:101590007868FFF7B3FF0346002B4ED007F10C032A
:1015A00000221A605A609A6007F10C03FB610C2359
:1015B000BB610AE07B68184600F0BBF903461A4697
:1015C000FB691A70FB690133FB61BB695A1EBA6182
:1015D000002B14BF01230023DBB2002BEAD13B69AF
:1015E000B3F1FF3F09D03B7D302B06D07B68184616
:1015F00000F0D1F90346012B01D1012300E00023C3
:10160000002B06D0FB68002219467868FFF7FDFD25
:1016100013E0FB68252219467868FFF7F6FD3B7D4D
:1016200019467868FFF710FEFA683B6902331344E5
:10163000002219467868FFF7E8FD7B681846FFF737
:10164000A8FC00BF2037BD4680BD80B582B000AF8A
:10165000786002E07868FFF793FF7B68184600F037
:101660009AF9034683F00103DBB2002BF2D100BFED
:1016700000BF0837BD4680BD80B582B000AF78603E
:1016800039607B68012B07D13B684FF6FF729342AC
:1016900002D1094809F060FD7B68002B07D13B6847
:1016A0004FF6FF72934202D1034809F081FE00BF5A
:1016B0000837BD4680BD00BF0803002480B500AFD9
:1016C0004FF6FF710120FFF7D7FF80BD80B500AF57
:1016D0004FF6FF710020FFF7CFFF80BD80B584B0CB
:1016E00000AF78607B68002B05D172B600BF00F0B8
:1016F00005FD00BFFDE70023FB6007E07B68FA689B
:10170000002143F82210FB680133FB60FB68012BCA
:10171000F4D97B6800221A7200BF1037BD4680BD25
:1017200080B584B000AF78607B68002B05D172B6BD
:1017300000BF00F0E3FC00BFFDE77B681B7A012BD4
:1017400005D972B600BF00F0D9FC00BFFDE7EFF38A
:1017500011824FF0500383F31188BFF36F8FBFF3F3
:101760004F8FFA60BB60FA687B681B7A591CC8B25D
:101770007968087219467B6843F8212000BF10374A
:10178000BD4680BD80B584B000AF78607B68002B1B
:1017900005D172B600BF00F0B1FC00BFFDE77B6869
:1017A0001B7A013BDAB27B681A727B681B7A012BC9
:1017B00005D972B600BF00F0A1FC00BFFDE77B6851
:1017C0001B7A1A467B6853F82230FB60FB6883F370
:1017D000118800BF00BF1037BD4680BD80B584B002
:1017E00000AFF860B9607A60FB68BA68DA60FB68DD
:1017F0007A681A61FB6800225A61FB6800229A61CC
:10180000FB6800221A77FB681846FFF767FFFB6842
:1018100018461037BD4680BD80B582B000AF7860F5
:101820000B46FB707B681846FFF77AFF7B68DA6827
:101830007B685B691344FA781A707B681B7F002B06
:101840000BD07B689B6901337A681269B3FBF2F1B4
:1018500001FB02F29A1A7B689A617B685B6901332B
:101860007A681269B3FBF2F101FB02F29A1A7B6803
:101870005A617B685A697B689B699A420CBF012355
:101880000023DAB27B681A777B681846FFF77AFF85
:1018900000BF0837BD4680BD80B586B000AFF86098
:1018A000B9607A60FB681846FFF73AFF00237B6156
:1018B00033E0BA687B691A44FB68D968FB685B69E6
:1018C0000B4412781A70FB681B7F002B0BD0FB684F
:1018D0009B690133FA681269B3FBF2F101FB02F272
:1018E0009A1AFB689A61FB685B690133FA681269AE
:1018F000B3FBF2F101FB02F29A1AFB685A61FB6832
:101900005A69FB689B699A420CBF01230023DAB233
:10191000FB681A777B6901337B617A697B689A423D
:10192000C7D3FB681846FFF72DFF00BF1837BD4629
:1019300080BD80B584B000AF78607B681846FFF743
:10194000EFFE7B68DA687B689B6913441B78FB7346
:10195000786800F020F80346002B0CBF0123002319
:10196000DBB2002B0ED07B6800221A777B689B6964
:1019700001337A681269B3FBF2F101FB02F29A1AA1
:101980007B689A617B681846FFF7FCFEFB7B184674
:101990001037BD4680BD80B483B000AF78607B68EF
:1019A0001B7F83F00103DBB2002B07D07B685A69F1
:1019B0007B689B699A4201D1012300E0002318460D
:1019C0000C37BD465DF8047B704780B584B000AF2E
:1019D000F860B9607A603B60FB687A68B96818465D
:1019E000FFF7FCFEFB683A681A62FB68184610377E
:1019F000BD4680BD0000000080B5BCB002AF2D2305
:101A0000C7F8E4302B23C7F8E030794BC7F8DC3057
:101A100075A3D3E90023C7E93423764A3B1D07CADF
:101A200083E80700744B00933B1D0ECB7348FFF710
:101A3000B1FB734A07F1100307CA83E8070007F1F7
:101A400010030ECB6D48FFF7A5FB6E4A07F11C0390
:101A500007CA83E8070007F11C030ECB6748FFF7AE
:101A600099FB674A07F1280307CA83E8070007F1D3
:101A700028030ECB6148FFF78DFB634A07F134035F
:101A800007CA83E80700D7F8E430009307F134036E
:101A90000ECB5A48FFF77EFB594A07F1400307CAAD
:101AA00083E8070007F140030ECB5448FFF772FBB1
:101AB000564A07F14C0307CA83E80700544B1B68DA
:101AC000009307F14C030ECB4C48FFF763FB4C4AE5
:101AD00007F1580307CA83E8070007F158030ECB44
:101AE0004648FFF757FB4B4A07F1640307CA83E8F0
:101AF0000700494B1B68009307F164030ECB3F4876
:101B0000FFF748FB3E4A07F1700307CA83E8070066
:101B100007F170030ECB3948FFF73CFB3F4A07F152
:101B20007C0307CA83E80700D7F8E030009307F189
:101B30007C030ECB3148FFF72DFB314A07F18803B8
:101B400007CA83E8070007F188030ECB2B48FFF78D
:101B500021FB334A07F1940307CA83E8070007F122
:101B600094030ECB2548FFF715FB254A07F1A00388
:101B700007CA83E8070007F1A0030ECB1F48FFF751
:101B800009FB284A07F1AC0307CA83E80700D7ED31
:101B9000377AB7EEE77A8DED007B07F1AC030ECB19
:101BA0001648FFF7F7FA164A07F1B80307CA83E8A1
:101BB000070007F1B8030ECB1048FFF7EBFA1A4AFB
:101BC00007F1C40307CA83E80700D7E93423CDE946
:101BD000002307F1C4030ECB0848FFF7DBFA00BF70
:101BE000E837BD4680BD00BFC74B378941E037406D
:101BF000175C703E14EE020804EE02080C07002485
:101C000024EE020838EE020864EE020870EE0208C4
:101C10000C0000247CEE020810000024A0EE020854
:101C2000ACEE0208D8EE02080CEF020880B58EB0C8
:101C300002AF7860FFF7E0FE254A07F1080307CA04
:101C400083E807000023009307F108030ECB214827
:101C5000FFF7A0FA00F0C4FCF8621F4B1B68FA6A99
:101C6000D31AB3F57A7F02D91B4AFB6A136019486D
:101C7000FFF7EBFC322006F065FD184B1B78002BBC
:101C8000E8D0164B00221A70154B1B680133144A1A
:101C900013600F4A07F1140307CA83E80700002303
:101CA000009307F114030ECB0A48FFF773FA0D4AAD
:101CB00007F1200307CA83E80700094B1B6800935C
:101CC00007F120030ECB0348FFF764FAC2E700BF19
:101CD00024EE02080C0700243807002430070024F3
:101CE0003407002430EF020880B582B000AF78607E
:101CF00039607B68012B0BD13B684FF6FF72934232
:101D000006D1054B4FF4806204490548FFF75DFE9C
:101D100000BF0837BD4680BD3C0700240C030024EB
:101D20000C07002480B500AF4FF6FF710120FFF7CC
:101D3000DBFF80BD80B582B000AF3D4BD3F8A03053
:101D40003B4A43F00803C2F8A0304FF6FF737B60B4
:101D500000BF374B1B6803F40043002B04D07B68A3
:101D60005A1E7A60002BF4DC00F0EAFB00F086F8E3
:101D70002F4BD3F8E0302E4A43F00073C2F8E03026
:101D80002B4BD3F8E03003F000733B603B6800203E
:101D900001F066FC0021002001F07CFC4FF6FF738F
:101DA0007B6000BF224B1B6803F40043002B04D16F
:101DB0007B685A1E7A60002BF4DC00F02DF900F0ED
:101DC000DFF806F0E3FB1B4A00211B4806F028FC65
:101DD00003461A4A13601A4A00211A4806F020FCEA
:101DE0000346194A1360194A0021194806F018FCE5
:101DF0000346184A1360184A0021184806F010FCE0
:101E00000346174A1360174A0021174806F008FCDA
:101E10000346164A1360164A0021164806F000FCD5
:101E20000346154A136006F0D5FB00BFFDE700BF6F
:101E30000044025844F00208C9200008D0070024DA
:101E400068F00208A5200008D80700248CF00208DA
:101E50002D1C0008D4070024D4F00208890A0008C9
:101E6000E0070024B0F00208790C0008DC07002429
:101E7000F8F00208890B0008E407002480B59CB044
:101E800000AF07F124034C220021184627F01EF86A
:101E90003B1D20220021184627F018F8022001F0EF
:101EA0000DFC00233B60344BDB6A334A23F0010313
:101EB000D362314BDB6A03F001033B602F4B9B691C
:101EC0002E4A43F4404393612C4B9B6903F44043F7
:101ED0003B603B6800BF294B9B6903F40053B3F59B
:101EE000005FF8D113237B624FF48033BB62012380
:101EF0003B6340237B6380233B6420237B6402237A
:101F0000BB640223FB6404233B6580237B650223BF
:101F1000BB650223FB6502233B6608237B66002327
:101F2000BB660023FB6607F12403184601F020FC82
:101F30000346002B01D000F0E1F83F237B60032330
:101F4000BB600023FB6008233B6140237B6140238F
:101F5000BB614FF48063FB6140233B623B1D022168
:101F6000184602F05FF80346002B01D000F0C6F8D7
:101F700000BF7037BD4680BD0004005800480258BD
:101F800080B500AF224B234A1A60214B4FF46122E7
:101F90005A601F4B00229A601D4B0022DA601C4BD6
:101FA00000221A611A4B0C225A61194B00229A61C5
:101FB000174B0022DA61164B00221A62144B0022E2
:101FC0005A62134B00229A62114804F0FFFC034648
:101FD000002B01D000F092F800210D4806F0C8F95E
:101FE0000346002B01D000F089F80021084806F0D4
:101FF000FDF90346002B01D000F080F8044806F0FC
:102000007EF90346002B01D000F078F800BF80BDB8
:102010003C0700240010014080B588B000AF07F1F4
:102020000C0300221A605A609A60DA601A611B4B36
:10203000D3F8E030194A43F00403C2F8E030174BFC
:10204000D3F8E03003F00403BB60BB68134BD3F854
:10205000E030124A43F00203C2F8E0300F4BD3F8ED
:10206000E03003F002037B607B6800224FF40051F4
:102070000B4801F0C1FA4FF40053FB6001233B61B0
:1020800000237B610023BB6107F10C031946044860
:1020900001F002F900BF2037BD4680BD0044025860
:1020A0000008025880B582B000AF78604FF400514C
:1020B000044801F0BAFA4FF47A7006F043FB00BF0F
:1020C000F4E700BF0008025880B582B000AF786026
:1020D000012006F037FBFBE780B582B000AF7860E7
:1020E0007B681B68044A934201D100F065FA00BF87
:1020F0000837BD4680BD00BF0010004080B400AF6F
:1021000072B600BF00BFFDE780B582B000AF0C4BD8
:10211000D3F8F4300A4A43F00203C2F8F430084B13
:10212000D3F8F43003F002037B607B6800220F21B8
:102130006FF0010000F024FB00BF0837BD4680BDF2
:102140000044025880B5BAB000AF786007F1D403FC
:1021500000221A605A609A60DA601A6107F110036F
:10216000C0220021184626F0B1FE7B681B682B4A6E
:1021700093424ED14FF001024FF00003C7E9042310
:102180001823C7F88C3007F11003184602F018FB2B
:102190000346002B01D0FFF7B1FF214BD3F8F030FD
:1021A0001F4A43F01003C2F8F0301D4BD3F8F03053
:1021B00003F01003FB60FB68194BD3F8E030184ABA
:1021C00043F00203C2F8E030154BD3F8E03003F0DF
:1021D0000203BB60BB684FF44043C7F8D43002230E
:1021E000C7F8D8300023C7F8DC300023C7F8E03048
:1021F0000423C7F8E43007F1D4031946094801F075
:102200004BF800220521252000F0BAFA252000F025
:10221000D1FA00BFE837BD4680BD00BF00100140C5
:10222000004402580004025880B590B000AF7860B6
:102230007B680F2B27D800227968362000F0A0FA9F
:10224000362000F0B7FA294A7B681360284BD3F890
:10225000E830274A43F01003C2F8E830244BD3F8A3
:10226000E83003F01003FB60FB6807F1100207F190
:1022700014031146184602F061FABB6ABB63BB6BDC
:10228000002B06D101E001232BE002F02BFAF863CA
:1022900004E002F027FA03465B00FB63FB6B154A80
:1022A000A2FB03239B0C013B7B63134B134A1A6075
:1022B000114B40F2E732DA600F4A7B6B53600E4BF2
:1022C00000221A610C4B00229A600B4804F0A4F81B
:1022D0000346002B04D1084804F000F9034600E04F
:1022E000012318464037BD4680BD00BF18000024BA
:1022F0000044025883DE1B43E8070024001000401E
:1023000080B400AF00BFFDE780B400AF00BFFDE7C1
:1023100080B400AF00BFFDE780B400AF00BFFDE7B1
:1023200080B400AF00BFFDE780B400AF00BFBD4682
:102330005DF8047B7047000080B500AF024804F0F0
:1023400023FC00BF80BD00BF3C07002480B500AF68
:10235000024804F03BF900BF80BD00BFE80700243D
:1023600080B400AF01231846BD465DF8047B70477A
:1023700080B582B000AF7860396028F0B3FD0346C5
:1023800016221A604FF0FF3318460837BD4680BD4D
:1023900080B582B000AF78604FF0FF317868FFF70A
:1023A000E7FF00BFFDE780B586B000AFF860B96019
:1023B0007A6000237B610AE0AFF300800146BB68CE
:1023C0005A1CBA60CAB21A707B6901337B617A69A0
:1023D0007B689A42F0DB7B6818461837BD4680BDA3
:1023E00080B586B000AFF860B9607A6000237B6189
:1023F00009E0BB685A1CBA601B781846AFF300802E
:102400007B6901337B617A697B689A42F1DB7B6887
:1024100018461837BD4680BD80B483B000AF7860E1
:102420004FF0FF3318460C37BD465DF8047B70470C
:1024300080B483B000AF786039603B684FF40052DD
:102440005A60002318460C37BD465DF8047B704780
:1024500080B483B000AF7860012318460C37BD46C6
:102460005DF8047B704780B485B000AFF860B96058
:102470007A60002318461437BD465DF8047B704728
:1024800080B586B000AF7860144A154BD31A7B61D3
:102490007B693B61134B1B68002B02D1114B124A25
:1024A0001A60104B1A687B6813443A699A4207D243
:1024B00028F018FD03460C221A604FF0FF3309E0A4
:1024C000084B1B68FB60074B1A687B681344054A7E
:1024D0001360FB6818461837BD4680BD000008240D
:1024E0000004000038080024E0690024DFF834D03C
:1024F000FEF716FC0C480D490D4A002302E0D458A3
:10250000C4500433C4188C42F9D30A4A0A4C00233D
:1025100001E013600432A242FBD328F0E9FCFFF78C
:1025200009FC70470000082400000024D8020024A1
:10253000BC390308D8020024E0690024FEE700004B
:1025400080B582B000AF032000F00FF901F020FF4A
:102550000246154B9B691B0A03F00F031349CB5C22
:1025600003F01F0322FA03F37B600F4B9B6903F018
:102570000F030E4AD35C03F01F037A6822FA03F3B9
:102580000B4A13600B4A7B6813600F20FFF74CFE69
:102590000346002B01D0012302E0FFF7B5FD002325
:1025A00018460837BD4680BD00440258B4EF020803
:1025B000080000240400002480B400AF064B1B7800
:1025C0001A46064B1B681344044A136000BFBD46FD
:1025D0005DF8047B704700BF1C0000243C08002409
:1025E00080B400AF034B1B681846BD465DF8047B02
:1025F000704700BF3C08002480B400AF034B1B6849
:102600001B0C1846BD465DF8047B70470010005C4B
:1026100080B485B000AF78607B6803F00703FB608F
:102620000B4BDB68BB60BA684FF6FF031340BB601F
:10263000FB681A02BB681A43064B1343BB60044A8B
:10264000BB68D36000BF1437BD465DF8047B70479C
:1026500000ED00E00000FA0580B400AF044BDB6839
:102660001B0A03F007031846BD465DF8047B70475C
:1026700000ED00E080B483B000AF0346FB80B7F903
:102680000630002B0BDBFB8803F01F020749B7F96C
:1026900006305B09012000FA02F241F8232000BF56
:1026A0000C37BD465DF8047B704700BF00E100E0D9
:1026B00080B483B000AF03463960FB80B7F90630C1
:1026C000002B0ADB3B68DAB20C49B7F9063012017D
:1026D000D2B20B4483F800230AE03B68DAB208491F
:1026E000FB8803F00F03043B1201D2B20B441A76AD
:1026F00000BF0C37BD465DF8047B704700E100E089
:1027000000ED00E080B489B000AFF860B9607A6095
:10271000FB6803F00703FB61FB69C3F10703042BAC
:1027200028BF0423BB61FB690433062B02D9FB6974
:10273000033B00E000237B614FF0FF32BB6902FAEC
:1027400003F3DA43BB681A407B699A404FF0FF31CC
:102750007B6901FA03F3D9437B680B4013431846A6
:102760002437BD465DF8047B704780B582B000AF6A
:1027700078607868FFF74CFF00BF0837BD4680BD22
:1027800080B586B000AF0346B9607A60FB81FFF781
:1027900063FF78617A68B9687869FFF7B3FF02462A
:1027A000B7F90E3011461846FFF782FF00BF183701
:1027B000BD4680BD80B582B000AF0346FB80B7F94F
:1027C00006301846FFF756FF00BF0837BD4680BDEC
:1027D00080B586B000AF7860FFF702FF38617B6894
:1027E000002B01D10123DCE27B6893F83530DBB2AA
:1027F000022B08D07B6880225A657B68002283F810
:1028000034200123CDE27B681B68764A93424AD08C
:102810007B681B68744A934245D07B681B68734A87
:10282000934240D07B681B68714A93423BD07B68DF
:102830001B68704A934236D07B681B686E4A93428D
:1028400031D07B681B686D4A93422CD07B681B6833
:102850006B4A934227D07B681B686A4A934222D016
:102860007B681B68684A93421DD07B681B68674A77
:10287000934218D07B681B68654A934213D07B68EB
:102880001B68644A93420ED07B681B68624A93427D
:1028900009D07B681B68614A934204D07B681B683F
:1028A0005F4A934201D1012300E00023002B13D0A3
:1028B0007B681B681A687B681B6822F01E021A601E
:1028C0007B681B685A697B681B6822F080025A612A
:1028D0007B681B687B610AE07B681B681A687B6801
:1028E0001B6822F00E021A607B681B687B617B68A4
:1028F0001B683C4A934272D07B681B683A4A9342F9
:102900006DD07B681B68394A934268D07B681B682E
:10291000374A934263D07B681B68364A93425ED045
:102920007B681B68344A934259D07B681B68334AE2
:10293000934254D07B681B68314A93424FD07B68E6
:102940001B68304A93424AD07B681B682E4A9342E8
:1029500045D07B681B682D4A934240D07B681B683A
:102960002B4A93423BD07B681B682A4A934236D05D
:102970007B681B68284A934231D07B681B68274AD2
:1029800093422CD07B681B68254A934227D07B68F2
:102990001B68244A934222D07B681B68224A9342D8
:1029A0001DD07B681B68214A934218D07B681B6846
:1029B0001F4A934213D07B681B681E4A93420ED075
:1029C0007B681B681C4A934209D07B681B681B4AC2
:1029D000934204D07B681B68194A934232D1012389
:1029E00031E000BF100002402800024040000240D9
:1029F000580002407000024088000240A0000240DF
:102A0000B800024010040240280402404004024082
:102A1000580402407004024088040240A0040240AE
:102A2000B8040240085402581C540258305402584A
:102A300044540258585402586C5402588054025856
:102A4000945402580023002B07D07B681B6E1A6831
:102A50007B681B6E22F480721A607B681B686D4A6B
:102A600093424AD07B681B686B4A934245D07B688F
:102A70001B686A4A934240D07B681B68684A93424D
:102A80003BD07B681B68674A934236D07B681B68E3
:102A9000654A934231D07B681B68644A93422CD0CC
:102AA0007B681B68624A934227D07B681B68614A37
:102AB000934222D07B681B685F4A93421DD07B689B
:102AC0001B685E4A934218D07B681B685C4A93423D
:102AD00013D07B681B685B4A93420ED07B681B68EF
:102AE000594A934209D07B681B68584A934204D0E4
:102AF0007B681B68564A934208D17B681B681A683A
:102B00007B681B6822F001021A6007E07B681B6883
:102B10001A687B681B6822F001021A6013E0FFF755
:102B20005FFD02463B69D31A052B0CD97B68202236
:102B30005A657B68032283F835207B68002283F87E
:102B4000342001232DE17B691B6803F00103002B76
:102B5000E5D17B681B682F4A93424AD07B681B688B
:102B60002D4A934245D07B681B682C4A934240D043
:102B70007B681B682A4A93423BD07B681B68294AC2
:102B8000934236D07B681B68274A934231D07B68DA
:102B90001B68264A93422CD07B681B68244A9342C8
:102BA00027D07B681B68234A934222D07B681B682E
:102BB000214A93421DD07B681B68204A934218D05B
:102BC0007B681B681E4A934213D07B681B681D4AB2
:102BD00093420ED07B681B681B4A934209D07B68E6
:102BE0001B681A4A934204D07B681B68184A9342B8
:102BF00001D1012300E00023002B2BD07B689B6DCB
:102C0000BB607B68DB6D03F01F033F229A40BB680B
:102C10009A602AE010000240280002404000024072
:102C2000580002407000024088000240A0000240AC
:102C3000B800024010040240280402404004024050
:102C4000580402407004024088040240A00402407C
:102C5000B80402407B689B6DFB607B68DB6D03F012
:102C60001F0301229A40FB685A607B681B684F4A29
:102C7000934272D07B681B684D4A93426DD07B684B
:102C80001B684C4A934268D07B681B684A4A93424F
:102C900063D07B681B68494A93425ED07B681B689F
:102CA000474A934259D07B681B68464A934254D0A6
:102CB0007B681B68444A93424FD07B681B68434A39
:102CC00093424AD07B681B68414A934245D07B6857
:102CD0001B68404A934240D07B681B683E4A93423F
:102CE0003BD07B681B683D4A934236D07B681B68AB
:102CF0003B4A934231D07B681B683A4A93422CD0BE
:102D00007B681B68384A934227D07B681B68374A28
:102D1000934222D07B681B68354A93421DD07B6862
:102D20001B68344A934218D07B681B68324A93422E
:102D300013D07B681B68314A93420ED07B681B68B6
:102D40002F4A934209D07B681B682E4A934204D0D5
:102D50007B681B682C4A934201D1012300E00023C9
:102D6000002B15D07B685B6E7A68926E5A607B6828
:102D7000DB6E002B0CD07B68DB6E1A687B68DB6E29
:102D800022F480721A607B681B6F7A68526F5A60F7
:102D90007B68012283F835207B68002283F8342089
:102DA000002318461837BD4680BD00BF1000024002
:102DB00028000240400002405800024070000240DB
:102DC00088000240A0000240B80002401004024007
:102DD00028040240400402405804024070040240AB
:102DE00088040240A0040240B8040240085402587B
:102DF0001C54025830540258445402585854025833
:102E00006C540258805402589454025880B584B0CF
:102E100000AF78607B68002B01D1012337E27B682B
:102E200093F83530DBB2022B04D07B6880225A65E0
:102E300001232CE27B681B685C4A93424AD07B6882
:102E40001B685B4A934245D07B681B68594A934292
:102E500040D07B681B68584A93423BD07B681B6814
:102E6000564A934236D07B681B68554A934231D00C
:102E70007B681B68534A93422CD07B681B68524A7C
:102E8000934227D07B681B68504A934222D07B68CC
:102E90001B684F4A93421DD07B681B684D4A934282
:102EA00018D07B681B684C4A934213D07B681B6820
:102EB0004A4A93420ED07B681B68494A934209D024
:102EC0007B681B68474A934204D07B681B68464A6C
:102ED000934201D1012300E00023002B00F0868003
:102EE0007B68042283F835207B681B682F4A934255
:102EF0004AD07B681B682E4A934245D07B681B688A
:102F00002C4A934240D07B681B682B4A93423BD0AB
:102F10007B681B68294A934236D07B681B68284A25
:102F2000934231D07B681B68264A93422CD07B6841
:102F30001B68254A934227D07B681B68234A93422B
:102F400022D07B681B68224A93421DD07B681B6895
:102F5000204A934218D07B681B681F4A934213D0C3
:102F60007B681B681D4A93420ED07B681B681C4A15
:102F7000934209D07B681B681A4A934204D07B684D
:102F80001B68194A934208D17B681B681A687B68E2
:102F90001B6822F001021A6078E17B681B681A68DE
:102FA0007B681B6822F001021A606FE1100002408A
:102FB00028000240400002405800024070000240D9
:102FC00088000240A0000240B80002401004024005
:102FD00028040240400402405804024070040240A9
:102FE00088040240A0040240B80402407B681B68C9
:102FF0001A687B681B6822F00E021A607B681B68E7
:103000006C4A93424AD07B681B686B4A934245D016
:103010007B681B68694A934240D07B681B68684A9A
:1030200093423BD07B681B68664A934236D07B68EC
:103030001B68654A934231D07B681B68634A9342A0
:103040002CD07B681B68624A934227D07B681B6840
:10305000604A934222D07B681B685F4A93421DD02E
:103060007B681B685D4A934218D07B681B685C4A8A
:10307000934213D07B681B685A4A93420ED07B68F8
:103080001B68594A934209D07B681B68574A934290
:1030900004D07B681B68564A934208D17B681B6842
:1030A0001A687B681B6822F001021A6007E07B68DF
:1030B0001B681A687B681B6822F001021A607B6833
:1030C0001B683C4A934272D07B681B683A4A934221
:1030D0006DD07B681B68394A934268D07B681B6857
:1030E000374A934263D07B681B68364A93425ED06E
:1030F0007B681B68344A934259D07B681B68334A0B
:10310000934254D07B681B68314A93424FD07B680E
:103110001B68304A93424AD07B681B682E4A934210
:1031200045D07B681B682D4A934240D07B681B6862
:103130002B4A93423BD07B681B682A4A934236D085
:103140007B681B68284A934231D07B681B68274AFA
:1031500093422CD07B681B68254A934227D07B681A
:103160001B68244A934222D07B681B68224A934200
:103170001DD07B681B68214A934218D07B681B686E
:103180001F4A934213D07B681B681E4A93420ED09D
:103190007B681B681C4A934209D07B681B681B4AEA
:1031A000934204D07B681B68194A934232D10123B1
:1031B00031E000BF10000240280002404000024001
:1031C000580002407000024088000240A000024007
:1031D000B8000240100402402804024040040240AB
:1031E000580402407004024088040240A0040240D7
:1031F000B8040240085402581C5402583054025873
:1032000044540258585402586C540258805402587E
:10321000945402580023002B28D07B681B6E1A6838
:103220007B681B6E22F480721A607B689B6DFB606A
:103230007B68DB6D03F01F0301229A40FB685A6034
:103240007B685B6E7A68926E5A607B68DB6E002BDF
:103250000CD07B68DB6E1A687B68DB6E22F48072B0
:103260001A607B681B6F7A68526F5A607B68012214
:1032700083F835207B68002283F834207B681B6D3F
:10328000002B03D07B681B6D786898470023184695
:103290001037BD4680BD00BF80B489B000AF7860F4
:1032A00039600023FB61894B7B6194E13B681A68BC
:1032B0000121FB6901FA03F313403B613B69002BD9
:1032C00000F086813B685B6803F00303012B05D0A7
:1032D0003B685B6803F00303022B30D17B689B687B
:1032E000BB61FB695B00032202FA03F3DB43BA69AB
:1032F0001340BB613B68DA68FB695B0002FA03F3C9
:10330000BA691343BB617B68BA699A607B685B6882
:10331000BB610122FB6902FA03F3DB43BA69134084
:10332000BB613B685B681B0903F00102FB6902FAA1
:1033300003F3BA691343BB617B68BA695A603B689F
:103340005B6803F00303032B17D07B68DB68BB616A
:10335000FB695B00032202FA03F3DB43BA69134003
:10336000BB613B689A68FB695B0002FA03F3BA69C8
:103370001343BB617B68BA69DA603B685B6803F042
:103380000303022B23D1FB69DA087B68083253F868
:103390002230BB61FB6903F007039B000F2202FA96
:1033A00003F3DB43BA691340BB613B681A69FB69ED
:1033B00003F007039B0002FA03F3BA691343BB61EE
:1033C000FB69DA087B680832B96943F822107B6828
:1033D0001B68BB61FB695B00032202FA03F3DB435A
:1033E000BA691340BB613B685B6803F00302FB6989
:1033F0005B0002FA03F3BA691343BB617B68BA69E5
:103400001A603B685B6803F44033002B00F0E080F7
:103410002F4BD3F8F4302E4A43F00203C2F8F430B5
:103420002B4BD3F8F43003F00203FB60FB68294A0E
:10343000FB699B08023352F82330BB61FB6903F040
:1034400003039B000F2202FA03F3DB43BA69134024
:10345000BB617B68204A934252D07B681F4A9342EB
:1034600031D07B681E4A93422BD07B681D4A934221
:1034700025D07B681C4A93421FD07B681B4A93422D
:1034800019D07B681A4A934213D07B68194A934239
:103490000DD07B68184A934207D07B68174A934245
:1034A00001D109232DE00A232BE0082329E007237B
:1034B00027E0062325E0052323E0042321E003235E
:1034C0001FE002231DE001231BE000BF8000005825
:1034D000004402580004005800000258000402583A
:1034E00000080258000C025800100258001402583C
:1034F00000180258001C02580020025800240258EC
:103500000023FA6902F0030292009340BA69134360
:10351000BB613849FB699B080233BA6941F8232033
:103520004FF0B0431B68BB613B69DB43BA69134092
:10353000BB613B685B6803F48013002B03D0BA695E
:103540003B691343BB614FF0B042BB6913604FF05E
:10355000B0435B68BB613B69DB43BA691340BB6145
:103560003B685B6803F40013002B03D0BA693B6926
:103570001343BB614FF0B042BB6953607B695B682A
:10358000BB613B69DB43BA691340BB613B685B6865
:1035900003F40033002B03D0BA693B691343BB61CA
:1035A0007B69BA695A607B691B68BB613B69DB4315
:1035B000BA691340BB613B685B6803F48033002B3E
:1035C00003D0BA693B691343BB617B69BA691A606E
:1035D000FB690133FB613B681A68FB6922FA03F35C
:1035E000002B7FF463AE00BF00BF2437BD465DF8FB
:1035F000047B70470004005880B483B000AF78604B
:103600000B467B8013467B707B78002B03D07A8837
:103610007B689A6103E07B881A047B689A6100BF2B
:103620000C37BD465DF8047B704780B485B000AFB1
:1036300078600B467B807B685B69FB607A88FB68FF
:1036400013401A04FB68D9437B880B401A437B68FC
:103650009A6100BF1437BD465DF8047B70470000D7
:1036600080B483B000AF7860084A7B68203352F89A
:103670002330074A934201D1002300E0012318467A
:103680000C37BD465DF8047B704700BF00640258EC
:103690000003008080B483B000AF786039600649D1
:1036A0003B6843F440727B6841F8232000BF0C372D
:1036B000BD465DF8047B70470064025880B584B055
:1036C00000AF7860294BDB6803F00703062B0AD0B4
:1036D000264BDB6803F03F037A689A4201D001234E
:1036E00040E000233EE0214BDB6823F03F021F490E
:1036F0007B681343CB60FEF773FFF86009E0FEF7C9
:103700006FFF0246FB68D31AB3F57A7F01D9012314
:1037100028E0164B5B6803F40053B3F5005FEED16D
:103720007B681E2B08D07B682E2B05D07B681D2B59
:1037300002D07B682D2B14D1FEF752FFF86009E010
:10374000FEF74EFF0246FB68D31AB3F57A7F01D924
:10375000012307E0054BDB6803F48033B3F5803FBA
:10376000EED1002318461037BD4680BD00480258F0
:1037700080B58CB000AF78607B68002B02D101234C
:1037800000F048BC7B681B6803F00103002B00F0CD
:103790008880994B1B6903F03803FB62964B9B6A48
:1037A000BB62FB6A102B07D0FB6A182B11D1BB6AD6
:1037B00003F00303022B0CD18F4B1B6803F400337F
:1037C000002B6DD07B685B68002B69D1012300F072
:1037D00021BC7B685B68B3F5803F06D1864B1B68D4
:1037E000854A43F4803313602EE07B685B68002BCE
:1037F0000CD1814B1B68804A23F4803313607E4BCD
:103800001B687D4A23F4802313601DE07B685B689E
:10381000B3F5A02F0CD1784B1B68774A43F4802373
:103820001360754B1B68744A43F4803313600BE0DC
:10383000714B1B68704A23F4803313606E4B1B6816
:103840006D4A23F4802313607B685B68002B13D0E0
:10385000FEF7C6FE786208E0FEF7C2FE02467B6A0B
:10386000D31A642B01D90323D4E3634B1B6803F4FD
:103870000033002BF0D014E0FEF7B2FE786208E0CF
:10388000FEF7AEFE02467B6AD31A642B01D90323EE
:10389000C0E3594B1B6803F40033002BF0D100E068
:1038A00000BF7B681B6803F00203002B00F0CA8096
:1038B000514B1B6903F038033B624F4B9B6AFB6122
:1038C0003B6A002B07D03B6A182B56D1FB6903F0EB
:1038D0000303002B51D1484B1B6803F00403002B5A
:1038E00005D07B68DB68002B01D1012392E3424BBA
:1038F0001B6823F019027B68DB683F4913430B60A8
:10390000FEF76EFE786208E0FEF76AFE02467B6A0A
:10391000D31A022B01D903237CE3374B1B6803F036
:103920000403002BF0D0FEF767FE034641F20302CA
:10393000934217D87B681B69402B08D12E4B5B68DC
:1039400023F47C332C4A43F4003353607AE02A4B4F
:103950005B6823F47C327B681B691B032649134395
:103960004B606FE0244B5B6823F0FE427B681B6971
:103970001B06214913434B6064E07B68DB68002B26
:1039800047D01D4B1B6823F019027B68DB681A497E
:1039900013430B60FEF724FE786208E0FEF720FE7A
:1039A00002467B6AD31A022B01D9032332E3124B5E
:1039B0001B6803F00403002BF0D0FEF71DFE034646
:1039C00041F20302934219D87B681B69402B08D14E
:1039D000094B5B6823F47C33074A43F4003353609C
:1039E00030E0054B5B6823F47C327B681B691B036A
:1039F000014913434B6025E0004402589A4B5B6831
:103A000023F0FE427B681B691B06974913434B60FA
:103A100018E0954B1B68944A23F001031360FEF7EE
:103A2000DFFD786208E0FEF7DBFD02467B6AD31A11
:103A3000022B01D90323EDE28B4B1B6803F0040337
:103A4000002BF0D17B681B6803F01003002B00F003
:103A5000A980854B1B6903F03803BB61824B9B6ACD
:103A60007B61BB69082B07D0BB69182B3AD17B69F6
:103A700003F00303012B35D17B4B1B6803F48073E8
:103A8000002B05D07B68DB69802B01D00123C1E2CC
:103A9000FEF7B2FD034641F20302934217D87B685A
:103AA0001B6A202B08D1704B5B6823F0F8436E4AE9
:103AB00043F08043536075E06B4B5B6823F0F84242
:103AC0007B681B6A9B06684913434B606AE0664B40
:103AD000DB6823F07C527B681B6A1B066249134338
:103AE000CB605FE07B68DB69002B42D05E4B1B68DC
:103AF0005D4A43F080031360FEF772FD786208E0D0
:103B0000FEF76EFD02467B6AD31A022B01D903230E
:103B100080E2554B1B6803F48073002BF0D0FEF756
:103B20006BFD034641F20302934217D87B681B6A80
:103B3000202B08D14C4B5B6823F0F8434A4A43F0F2
:103B4000804353602EE0484B5B6823F0F8427B686B
:103B50001B6A9B06444913434B6023E0424BDB68DE
:103B600023F07C527B681B6A1B063F491343CB60E2
:103B700018E03D4B1B683C4A23F080031360FEF7BE
:103B80002FFD786208E0FEF72BFD02467B6AD31A10
:103B9000022B01D903233DE2334B1B6803F48073EE
:103BA000002BF0D17B681B6803F00803002B36D094
:103BB0007B685B69002B19D02B4B5B6F2A4A43F063
:103BC00001035367FEF70CFD786208E0FEF708FD7D
:103BD00002467B6AD31A022B01D903231AE2224B35
:103BE0005B6F03F00203002BF0D018E01E4B5B6FFD
:103BF0001D4A23F001035367FEF7F2FC786208E0E8
:103C0000FEF7EEFC02467B6AD31A022B01D903238E
:103C100000E2154B5B6F03F00203002BF0D17B68D1
:103C20001B6803F02003002B39D07B689B69002BB5
:103C30001CD00D4B1B680C4A43F480531360FEF7F5
:103C4000CFFC786208E0FEF7CBFC02467B6AD31A11
:103C5000022B01D90323DDE1034B1B6803F400535E
:103C6000002BF0D01BE000BF004402589B4B1B68A8
:103C70009A4A23F480531360FEF7B2FC786208E09E
:103C8000FEF7AEFC02467B6AD31A022B01D903234E
:103C9000C0E1924B1B6803F40053002BF0D17B680A
:103CA0001B6803F00403002B00F081808C4B1B6821
:103CB0008B4A43F480731360FEF792FC786208E04D
:103CC000FEF78EFC02467B6AD31A642B01D90323CC
:103CD000A0E1834B1B6803F48073002BF0D07B685A
:103CE0009B68012B06D17D4B1B6F7C4A43F001037F
:103CF00013672DE07B689B68002B0CD1774B1B6F03
:103D0000764A23F001031367744B1B6F734A23F049
:103D1000040313671CE07B689B68052B0CD16F4B79
:103D20001B6F6E4A43F0040313676C4B1B6F6B4AA7
:103D300043F0010313670BE0684B1B6F674A23F0E6
:103D400001031367654B1B6F644A23F00403136779
:103D50007B689B68002B15D0FEF742FC78620AE076
:103D6000FEF73EFC02467B6AD31A41F28832934248
:103D700001D903234EE1594B1B6F03F00203002BC3
:103D8000EED014E0FEF72CFC78620AE0FEF728FC87
:103D900002467B6AD31A41F28832934201D9032347
:103DA00038E14E4B1B6F03F00203002BEED17B6812
:103DB0005B6A002B00F02D81484B1B6903F0380330
:103DC000182B00F0BD807B685B6A022B40F09E8060
:103DD000424B1B68414A23F080731360FEF700FCDE
:103DE000786208E0FEF7FCFB02467B6AD31A022BDE
:103DF00001D903230EE1394B1B6803F00073002B3C
:103E0000F0D1364B9A6A374B13407A68916A7A68D8
:103E1000D26A12010A43314913438B627B681B6BE0
:103E2000013BC3F308027B685B6B013B5B029BB207
:103E30001A437B689B6B013B1B0403F4FE031A438C
:103E40007B68DB6B013B1B0603F0FE4323491343F6
:103E50000B63224BDB6A214A23F00103D3621F4B21
:103E60005A6B214B13407A68926CD2001B49134362
:103E70004B631A4BDB6A23F00C027B681B6C1749FF
:103E80001343CB62154BDB6A23F002027B685B6C49
:103E900012491343CB62114BDB6A104A43F480335F
:103EA000D3620E4BDB6A0D4A43F40033D3620B4BF3
:103EB000DB6A0A4A43F48023D362084BDB6A074A71
:103EC00043F00103D362054B1B68044A43F080733F
:103ED0001360FEF785FB786211E000BF00440258D2
:103EE000004802580CFCFFFF0700FFFFFEF778FBBD
:103EF00002467B6AD31A022B01D903238AE0474B7F
:103F00001B6803F00073002BF0D082E0434B1B686A
:103F1000424A23F080731360FEF762FB786208E088
:103F2000FEF75EFB02467B6AD31A022B01D90323FC
:103F300070E03A4B1B6803F00073002BF0D168E08F
:103F4000364B9B6A3B61354B1B6BFB607B685B6A46
:103F5000012B31D03B6903F003027B689B6A9A42D4
:103F60002AD13B691B0903F03F027B68DB6A9A4256
:103F700022D1FB68C3F308027B681B6B013B9A42AA
:103F80001AD1FB685B0A03F07F027B685B6B013B25
:103F90009A4211D1FB681B0C03F07F027B689B6B7C
:103FA000013B9A4208D1FB681B0E03F07F027B683D
:103FB000DB6B013B9A4201D001232BE0174B5B6B7B
:103FC000DB08C3F30C033B617B689B6C3A699A4244
:103FD0001FD0124BDB6A114A23F00103D362FEF7B4
:103FE000FFFA786200BFFEF7FBFA02467B6A934253
:103FF000F9D00A4B5A6B0A4B13407A68926CD20084
:10400000064913434B63054BDB6A044A43F0010343
:10401000D362002318463037BD4680BD00440258A5
:104020000700FFFF80B586B000AF786039607B681D
:10403000002B01D101239CE18A4B1B6803F00F0385
:104040003A689A4210D9874B1B6823F00F028549C2
:104050003B6813430B60834B1B6803F00F033A6804
:104060009A4201D0012384E17B681B6803F00403BA
:10407000002B10D07B681A697B4B9B6903F070039F
:104080009A4208D9784B9B6923F070027B681B69C0
:10409000754913438B617B681B6803F00803002B91
:1040A00010D07B685A69704BDB6903F070039A4249
:1040B00008D96D4BDB6923F070027B685B696A4944
:1040C0001343CB617B681B6803F01003002B10D0F7
:1040D0007B689A69644BDB6903F4E0639A4208D910
:1040E000614BDB6923F4E0627B689B695E491343A3
:1040F000CB617B681B6803F02003002B10D07B682A
:10410000DA69594B1B6A03F070039A4208D9564B7F
:104110001B6A23F070027B68DB69534913430B620F
:104120007B681B6803F00203002B10D07B68DA6801
:104130004D4B9B6903F00F039A4208D94A4B9B6988
:1041400023F00F027B68DB68474913438B617B6870
:104150001B6803F00103002B55D0434B9B6923F4EC
:1041600070627B689B68404913438B617B685B6826
:10417000022B07D13C4B1B6803F40033002B21D1E9
:104180000123F6E07B685B68032B07D1364B1B6885
:1041900003F00073002B15D10123EAE07B685B6814
:1041A000012B07D1304B1B6803F48073002B09D11E
:1041B0000123DEE02C4B1B6803F00403002B01D12C
:1041C0000123D6E0284B1B6923F007027B685B685C
:1041D000254913430B61FEF703FA78610AE0FEF705
:1041E000FFF902467B69D31A41F28832934201D922
:1041F0000323BEE01C4B1B6903F038027B685B683D
:10420000DB009A42EBD17B681B6803F00203002BB2
:1042100010D07B68DA68144B9B6903F00F039A4255
:1042200008D2114B9B6923F00F027B68DB680E49B3
:1042300013438B610B4B1B6803F00F033A689A42E0
:1042400014D2084B1B6823F00F0206493B68134346
:104250000B60044B1B6803F00F033A689A4205D0C9
:10426000012386E000200052004402587B681B684E
:1042700003F00403002B10D07B681A693F4B9B6945
:1042800003F070039A4208D23C4B9B6923F0700202
:104290007B681B69394913438B617B681B6803F09A
:1042A0000803002B10D07B685A69344BDB6903F09C
:1042B00070039A4208D2314BDB6923F070027B68AD
:1042C0005B692E491343CB617B681B6803F01003C5
:1042D000002B10D07B689A69284BDB6903F4E063FC
:1042E0009A4208D2254BDB6923F4E0627B689B6924
:1042F00022491343CB617B681B6803F02003002B2A
:1043000010D07B68DA691D4B1B6A03F070039A4278
:1043100008D21A4B1B6A23F070027B68DB691749CD
:1043200013430B6200F034F80246144B9B691B0ADE
:1043300003F00F031249CB5C03F01F0322FA03F3CF
:104340003B610E4B9B6903F00F030D4AD35C03F0F6
:104350001F033A6922FA03F30A4A13600A4A3B69C7
:1043600013600A4B1B681846FDF75EFF0346FB739C
:10437000FB7B18461837BD4680BD00BF004402587D
:10438000B4EF0208080000240400002418000024F0
:1043900080B489B000AFB34B1B6903F03803182B0E
:1043A00000F2558101A252F823F000BF1144000829
:1043B0004F4600084F4600084F4600084F46000889
:1043C0004F4600084F4600084F4600083744000893
:1043D0004F4600084F4600084F4600084F46000869
:1043E0004F4600084F4600084F4600083D4400086D
:1043F0004F4600084F4600084F4600084F46000849
:104400004F4600084F4600084F4600084344000846
:10441000944B1B6803F02003002B09D0914B1B68C1
:10442000DB0803F00303904A22FA03F3BB6111E1B6
:104430008D4BBB610EE18D4BBB610BE18C4BBB61C6
:1044400008E1884B9B6A03F003037B61854B9B6A01
:104450001B0903F03F033B61824BDB6A03F001035E
:10446000FB60804B5B6BDB08C3F30C03FA6802FB59
:1044700003F307EE903AF8EE677AC7ED027A3B69EC
:10448000002B00F0E1807B69022B00F083807B69C8
:10449000022B00F2A1807B69002B03D07B69012BEA
:1044A00056D099E06F4B1B6803F02003002B2DD0F2
:1044B0006C4B1B68DB0803F003036B4A22FA03F31F
:1044C0007B607B6807EE903AF8EE676A3B6907EE1F
:1044D000903AF8EE677A86EEA77A624B1B6BC3F3CD
:1044E000080307EE903AF8EE676A97ED026ADFED8F
:1044F000615AC6EE257A76EEA77AF7EE006A77EE75
:10450000A67A67EE277AC7ED077A87E03B6907EE60
:10451000903AF8EE677ADFED586A86EEA77A514B4B
:104520001B6BC3F3080307EE903AF8EE676A97ED4A
:10453000026ADFED505AC6EE257A76EEA77AF7EEDC
:10454000006A77EEA67A67EE277AC7ED077A65E00C
:104550003B6907EE903AF8EE677ADFED486A86EE3F
:10456000A77A404B1B6BC3F3080307EE903AF8EEB3
:10457000676A97ED026ADFED3F5AC6EE257A76EE5E
:10458000A77AF7EE006A77EEA67A67EE277AC7ED8C
:10459000077A43E03B6907EE903AF8EE677ADFED81
:1045A000386A86EEA77A2F4B1B6BC3F3080307EE1E
:1045B000903AF8EE676A97ED026ADFED2E5AC6EE82
:1045C000257A76EEA77AF7EE006A77EEA67A67EE9E
:1045D000277AC7ED077A21E03B6907EE903AF8EEBB
:1045E000677ADFED266A86EEA77A1E4B1B6BC3F354
:1045F000080307EE903AF8EE676A97ED026ADFED7E
:104600001D5AC6EE257A76EEA77AF7EE006A77EEA7
:10461000A67A67EE277AC7ED077A00BF114B1B6BAE
:104620005B0A03F07F0301333B603B6807EE903A7F
:10463000B8EE677AD7ED076AC6EE877AFCEEE77ABE
:1046400017EE903ABB6105E00023BB6102E0074B27
:10465000BB6100BFBB6918462437BD465DF8047BCB
:10466000704700BF004402580090D00300093D008D
:1046700040787D01000000460024744C0024744AF8
:1046800020BCBE4B80B582B000AFFFF781FE024672
:10469000104B9B691B0A03F00F030F49CB5C03F01F
:1046A0001F0322FA03F37B600A4B9B6903F00F039D
:1046B000094AD35C03F01F037A6822FA03F3074A1E
:1046C0001360074A7B681360044B1B681846083761
:1046D000BD4680BD00440258B4EF02080800002423
:1046E0000400002480B500AFFFF7CCFF0246064B64
:1046F000DB691B0903F007030449CB5C03F01F03CC
:1047000022FA03F3184680BD00440258B4EF0208B1
:1047100080B500AFFFF7B6FF0246064BDB691B0A08
:1047200003F007030449CB5C03F01F0322FA03F3F1
:10473000184680BD00440258B4EF020880B483B02C
:1047400000AF786039607B683F221A601A4B1B69A2
:1047500003F007027B685A60174B9B6903F4706291
:104760007B689A60144B9B6903F00F027B68DA60E8
:10477000114B9B6903F070027B681A610E4BDB6979
:1047800003F070027B685A610B4BDB6903F4E06253
:104790007B689A61084B1B6A03F070027B68DA61E0
:1047A000064B1B6803F00F023B681A6000BF0C3712
:1047B000BD465DF8047B704700440258002000525B
:1047C0002DE9B04FCAB000AFC7F81401002387F835
:1047D0002731002387F82631D7F81431D3E9002395
:1047E00002F00064002554EA050349D0D7F81431DB
:1047F0009B6EB3F5401F2FD0B3F5401F28D8B3F5FB
:10480000001F1AD0B3F5001F22D8002B03D0B3F538
:10481000801F07D01CE0B84BDB6AB74A43F4003373
:10482000D3621AE0D7F8143108330221184601F098
:104830008FFC034687F827310FE0D7F8143128336F
:104840000221184601F036FD034687F8273104E0BF
:10485000012387F8273100E000BF97F82731002BAC
:104860000AD1A54B1B6D23F44011D7F814319B6E70
:10487000A14A0B43136503E097F8273187F82631E7
:10488000D7F81431D3E9002302F480784FF00009FF
:1048900058EA090347D0D7F814319B6D042B2AD866
:1048A00001A252F823F000BFBD480008CB48000821
:1048B000E1480008FF480008FF4800088E4BDB6A0B
:1048C0008D4A43F40033D3621AE0D7F81431083329
:1048D0000021184601F03CFC034687F827310FE021
:1048E000D7F8143128330021184601F0E3FC0346C1
:1048F00087F8273104E0012387F8273100E000BF63
:1049000097F82731002B0AD17B4B1B6D23F0070151
:10491000D7F814319B6D784A0B43136503E097F881
:10492000273187F82631D7F81431D3E9002302F470
:10493000007A4FF0000B5AEA0B034CD0D7F8143131
:10494000DB6DB3F5807F30D0B3F5807F29D8C02BE5
:104950002DD0C02B25D8802B18D0802B21D8002B10
:1049600002D0402B07D01CE0634BDB6A624A43F461
:104970000033D3621CE0D7F8143108330021184605
:1049800001F0E6FB034687F8273111E0D7F8143130
:1049900028330021184601F08DFC034687F82731A3
:1049A00006E0012387F8273102E000BF00E000BFE6
:1049B00097F82731002B0AD14F4B1B6D23F4E07180
:1049C000D7F81431DB6D4C4A0B43136503E097F8BD
:1049D000273187F82631D7F81431D3E9002302F4C0
:1049E0008063C7F808310023C7F80C31D7E94212B9
:1049F0000B46134353D0D7F81431D3F8A830B3F58E
:104A0000000F35D0B3F5000F2ED8B3F5C00F31D05D
:104A1000B3F5C00F28D8B3F5800F1AD0B3F5800FC7
:104A200022D8002B03D0B3F5001F07D01CE0324B77
:104A3000DB6A314A43F40033D3621CE0D7F8143107
:104A400008330021184601F083FB034687F827311D
:104A500011E0D7F8143128330021184601F02AFC60
:104A6000034687F8273106E0012387F8273102E063
:104A700000BF00E000BF97F82731002B0BD11E4B81
:104A80009B6D23F46001D7F81431D3F8A8301A4A8B
:104A90000B43936503E097F8273187F82631D7F861
:104AA0001431D3E9002302F40063C7F80031002376
:104AB000C7F80431D7E940120B46134356D0D7F854
:104AC0001431D3F8AC30B3F1806F38D0B3F1806FCC
:104AD00031D8B3F1407F34D0B3F1407F2BD8B3F15C
:104AE000007F1DD0B3F1007F25D8002B06D0B3F195
:104AF000807F0AD01FE000BF00440258A24BDB6A4F
:104B0000A14A43F40033D3621CE0D7F814310833D0
:104B10000021184601F01CFB034687F8273111E0FD
:104B2000D7F8143128330021184601F0C3FB03469F
:104B300087F8273106E0012387F8273102E000BF1C
:104B400000E000BF97F82731002B0BD18E4B9B6DF7
:104B500023F0E061D7F81431D3F8AC308A4A0B4324
:104B6000936503E097F8273187F82631D7F8143199
:104B7000D3E9002302F00073C7F8F8300023C7F828
:104B8000FC30D7E93E120B4613433AD0D7F8143124
:104B9000DB6C302B1FD0302B19D8202B0CD0202BC6
:104BA00015D8002B19D0102B11D1774BDB6A764A20
:104BB00043F40033D36211E0D7F8143108330221F3
:104BC000184601F0C5FA034687F8273106E00123AD
:104BD00087F8273102E000BF00E000BF97F82731D7
:104BE000002B0AD1684BDB6C23F03001D7F814316D
:104BF000DB6C654A0B43D36403E097F8273187F8F1
:104C00002631D7F81431D3E9002302F48053C7F8D2
:104C1000F0300023C7F8F430D7E93C120B461343B9
:104C200051D0D7F814311B6EB3F5804F35D0B3F5A2
:104C3000804F2ED8B3F5405F31D0B3F5405F28D810
:104C4000B3F5005F1AD0B3F5005F22D8002B03D074
:104C5000B3F5805F07D01CE04B4BDB6A4A4A43F454
:104C60000033D3621CE0D7F8143108330021184612
:104C700001F06EFA034687F8273111E0D7F81431B6
:104C800028330021184601F015FB034687F8273129
:104C900006E0012387F8273102E000BF00E000BFF3
:104CA00097F82731002B0AD1374B1B6D23F4E041D5
:104CB000D7F814311B6E344A0B43136503E097F8A1
:104CC000273187F82631D7F81431D3E9002302F4CD
:104CD0000053C7F8E8300023C7F8EC30D7E93A12A0
:104CE0000B46134356D0D7F814315B6EB3F5A02FA3
:104CF00033D0B3F5A02F2CD8B3F5802F2FD0B3F538
:104D0000802F26D8B3F5403F2BD0B3F5403F20D8B5
:104D1000B3F5003F12D0B3F5003F1AD8002B22D0D4
:104D2000B3F5803F15D1D7F8143108330121184667
:104D300001F00EFA034687F8273115E0D7F8143151
:104D400028330121184601F0B5FA034687F82731C8
:104D50000AE0012387F8273106E000BF04E000BF26
:104D600002E000BF00E000BF97F82731002B0DD113
:104D7000054B1B6D23F4E021D7F814315B6E024A1A
:104D80000B43136506E000BF0044025897F8273133
:104D900087F82631D7F81431D3E9002302F4804391
:104DA000C7F8E0300023C7F8E430D7E938120B46E3
:104DB000134355D0D7F81431D3F8B030B3F1A04F26
:104DC00033D0B3F1A04F2CD8B3F1804F2FD0B3F133
:104DD000804F26D8B3F1405F2BD0B3F1405F20D88D
:104DE000B3F1005F12D0B3F1005F1AD8002B22D0CC
:104DF000B3F1805F15D1D7F814310833012118467B
:104E000001F0A6F9034687F8273115E0D7F81431E9
:104E100028330121184601F04DFA034687F827315F
:104E20000AE0012387F8273106E000BF04E000BF55
:104E300002E000BF00E000BF97F82731002B0BD144
:104E4000A34B9B6D23F0E041D7F81431D3F8B03079
:104E50009F4A0B43936503E097F8273187F8263183
:104E6000D7F81431D3E9002302F40043C7F8D8304F
:104E70000023C7F8DC30D7E936120B46134337D08E
:104E8000D7F814311B6FB3F1005F0ED0B3F1005FA0
:104E900016D8002B18D0B3F1805F11D18C4BDB6A90
:104EA0008B4A43F40033D3620FE0D7F81431083350
:104EB0000121184601F04CF9034687F8273104E038
:104EC000012387F8273100E000BF97F82731002B36
:104ED0000AD17F4B1B6D23F04051D7F814311B6F63
:104EE0007B4A0B43136503E097F8273187F8263197
:104EF000D7F81431D3E9002302F08073C7F8D0301B
:104F00000023C7F8D430D7E934120B46134339D005
:104F1000D7F814319B6C032B1CD801A252F823F054
:104F20005D4F0008314F00083F4F00085D4F0008FB
:104F3000674BDB6A664A43F40033D3620FE0D7F86D
:104F4000143108330221184601F002F9034687F8AC
:104F5000273104E0012387F8273100E000BF97F8EC
:104F60002731002B0AD15A4BDB6C23F00301D7F811
:104F700014319B6C564A0B43D36403E097F82731F6
:104F800087F82631D7F81431D3E9002302F48003DF
:104F9000C7F8C8300023C7F8CC30D7E932120B4627
:104FA000134300F09F804B4B1B684A4A43F48073C5
:104FB0001360FDF715FBC7F820010BE0FDF710FBB0
:104FC0000246D7F82031D31A642B03D9032387F87C
:104FD000273105E03F4B1B6803F48073002BEDD0B5
:104FE00097F82731002B79D1394B1A6FD7F8143144
:104FF000D3F8B430534003F44073002B15D0344B36
:105000001B6F23F44073C7F81C31314B1B6F304AC0
:1050100043F4803313672E4B1B6F2D4A23F48033E8
:1050200013672B4AD7F81C311367D7F81431D3F81C
:10503000B430B3F5807F18D1FDF7D2FAC7F820015C
:105040000DE0FDF7CDFA0246D7F82031D21A41F231
:1050500088339A4203D9032387F8273105E01C4B94
:105060001B6F03F00203002BEBD097F82731002BC6
:1050700029D1D7F81431D3F8B43003F44073B3F521
:10508000407F0ED1124B1B6923F47C51D7F81431A9
:10509000D3F8B4301A09104B13400D4A0B43136177
:1050A00005E00B4B1B690A4A23F47C531361084B40
:1050B000196FD7F81431D3F8B430C3F30B03044A93
:1050C0000B4313670EE097F8273187F8263109E084
:1050D0000044025800480258CFFFFF0097F82731DC
:1050E00087F82631D7F81431D3E9002302F0010301
:1050F000C7F8C0300023C7F8C430D7E930120B46D8
:10510000134300F08980D7F81431DB6F282B6BD85C
:1051100001A252F823F000BFF1510008E951000844
:10512000E9510008E9510008E9510008E951000877
:10513000E9510008E9510008BD510008E951000893
:10514000E9510008E9510008E9510008E951000857
:10515000E9510008E9510008D3510008E95100085D
:10516000E9510008E9510008E9510008E951000837
:10517000E9510008E9510008F1510008E95100081F
:10518000E9510008E9510008E9510008E951000817
:10519000E9510008E9510008F1510008E9510008FF
:1051A000E9510008E9510008E9510008E9510008F7
:1051B000E9510008E9510008F1510008D7F814310D
:1051C00008330121184600F0C3FF034687F8273152
:1051D0000FE0D7F8143128330121184601F06AF89E
:1051E000034687F8273104E0012387F8273100E0E0
:1051F00000BF97F82731002B0AD1BF4B5B6D23F01E
:105200003801D7F81431DB6FBB4A0B43536503E019
:1052100097F8273187F82631D7F81431D3E90023DE
:1052200002F00203C7F8B8300023C7F8BC30D7E952
:105230002E120B46134341D0D7F814319B6F052B28
:1052400024D801A252F823F09552000861520008B8
:1052500077520008955200089552000895520008B0
:10526000D7F8143108330121184600F071FF0346C6
:1052700087F827310FE0D7F8143128330121184679
:1052800001F018F8034687F8273104E0012387F876
:10529000273100E000BF97F82731002B0AD1964B49
:1052A0005B6D23F00701D7F814319B6F924A0B43D3
:1052B000536503E097F8273187F82631D7F8143182
:1052C000D3E9002302F00403C7F8B0300023C7F885
:1052D000B430D7E92C120B46134344D0D7F814311D
:1052E000D3F89430052B25D801A252F823F000BF43
:1052F0003D530008095300081F5300083D530008A0
:105300003D5300083D530008D7F8143108330121FC
:10531000184600F01DFF034687F827310FE0D7F845
:10532000143128330121184600F0C4FF034687F8E2
:10533000273104E0012387F8273100E000BF97F808
:105340002731002B0BD16C4B9B6D23F00701D7F855
:105350001431D3F89430684A0B43936503E097F80F
:10536000273187F82631D7F81431D3E9002302F02A
:105370002003C7F8A8300023C7F8AC30D7E92A12B9
:105380000B46134355D0D7F81431D3F89030B3F10E
:10539000A04F33D0B3F1A04F2CD8B3F1804F2FD012
:1053A000B3F1804F26D8B3F1405F2BD0B3F1405F0B
:1053B00020D8B3F1005F12D0B3F1005F1AD8002BF0
:1053C00022D0B3F1805F15D1D7F814310833002112
:1053D000184600F0BDFE034687F8273115E0D7F8E0
:1053E000143128330221184600F064FF034687F881
:1053F00027310AE0012387F8273106E000BF04E0E7
:1054000000BF02E000BF00E000BF97F82731002B8B
:105410000BD1394B5B6D23F0E041D7F81431D3F851
:105420009030354A0B43536503E097F8273187F8EE
:105430002631D7F81431D3E9002302F04003C7F82E
:10544000A0300023C7F8A430D7E928120B46134335
:1054500058D0D7F81431D3F89C30B3F5A05F33D0CF
:10546000B3F5A05F2CD8B3F5805F2FD0B3F5805F84
:1054700026D8B3F5406F2BD0B3F5406F20D8B3F5E5
:10548000006F12D0B3F5006F1AD8002B22D0B3F5FD
:10549000806F15D1D7F8143108330021184600F079
:1054A00057FE034687F8273115E0D7F81431283323
:1054B0000221184600F0FEFE034687F827310AE075
:1054C000012387F8273106E000BF04E000BF02E0B7
:1054D00000BF00E000BF97F82731002B0ED1064B2C
:1054E0009B6D23F4E051D7F81431D3F89C30024A75
:1054F0000B43936506E000BF0044025897F827313C
:1055000087F82631D7F81431D3E9002302F080035D
:10551000C7F898300023C7F89C30D7E926120B460D
:10552000134355D0D7F81431D3F8A030B3F5204F3A
:1055300033D0B3F5204F2CD8B3F5004F2FD0B3F5AF
:10554000004F26D8B3F5C04F2BD0B3F5C04F20D8AD
:10555000B3F5804F12D0B3F5804F1AD8002B22D06C
:10556000B3F5005F15D1D7F8143108330021184680
:1055700000F0EEFD034687F8273115E0D7F8143127
:1055800028330221184600F095FE034687F827319C
:105590000AE0012387F8273106E000BF04E000BFDE
:1055A00002E000BF00E000BF97F82731002B0BD1CD
:1055B000A14B9B6D23F46041D7F81431D3F8A03090
:1055C0009D4A0B43936503E097F8273187F826310E
:1055D000D7F81431D3E9002302F00803C7F890305C
:1055E0000023C7F89430D7E924120B4613431ED08A
:1055F000D7F81431D3F88430B3F5805F0CD1D7F8E5
:10560000143128330221184600F054FE0346002BC3
:1056100002D0012387F82631874B5B6D23F440517C
:10562000D7F81431D3F88430834A0B435365D7F845
:105630001431D3E9002302F01003C7F888300023A7
:10564000C7F88C30D7E922120B4613431ED0D7F887
:105650001431D3F89830B3F5807F0CD1D7F81431DA
:1056600028330221184600F025FE0346002B02D005
:10567000012387F82631704B9B6D23F44071D7F8D6
:105680001431D3F898306C4A0B439365D7F8143132
:10569000D3E9002302F40023C7F880300023C7F8C1
:1056A0008430D7E920120B4613433ED0D7F814318B
:1056B000D3F8A430B3F5003F22D0B3F5003F1BD898
:1056C000002B03D0B3F5803F0BD015E0D7F8143191
:1056D00008330021184600F03BFD034687F82731C8
:1056E0000FE0D7F8143128330221184600F0E2FD0C
:1056F000034687F8273104E0012387F8273100E0CB
:1057000000BF97F82731002B0BD14B4B9B6D23F437
:105710004031D7F81431D3F8A430474A0B4393658E
:1057200003E097F8273187F82631D7F81431D3E909
:10573000002302F48023BB670023FB67D7E91E1216
:105740000B4613433BD0D7F81431D3F88830B3F568
:10575000401F1FD0B3F5401F18D8B3F5801F03D0EA
:10576000B3F5001F07D011E0334BDB6A324A43F434
:105770000033D3620FE0D7F81431283301211846E3
:1057800000F098FD034687F8273104E0012387F8ED
:10579000273100E000BF97F82731002B0BD1264BB3
:1057A0005B6D23F44011D7F81431D3F88830224AC6
:1057B0000B43536503E097F8273187F82631D7F874
:1057C0001431D3E9002302F480333B6700237B6765
:1057D000D7E91C120B46134334D0D7F814311B6D94
:1057E000002B03D0B3F5803F07D011E0124BDB6AEA
:1057F000114A43F40033D3620EE0D7F81431083372
:105800000221184600F0A4FC034687F8273103E084
:10581000012387F8273100BF97F82731002B0DD1DE
:10582000054BDB6C23F48031D7F814311B6D024A31
:105830000B43D36406E000BF0044025897F82731B9
:1058400087F82631D7F81431D3E9002302F000534A
:10585000BB660023FB66D7E91A120B4613430CD034
:10586000D7F8143128330221184600F023FD0346EF
:10587000002B02D0012387F82631D7F81431D3E961
:10588000002302F400333B6600237B66D7E918123D
:105890000B46134338D0D7F81431D3F88030B3F522
:1058A000407F18D0B3F5407F11D8B3F5007F14D0F6
:1058B000B3F5007F0BD8002B11D0B3F5807F06D154
:1058C000C34BDB6AC24A43F40033D36208E00123CE
:1058D00087F8273104E000BF02E000BF00E000BF0E
:1058E00097F82731002B0BD1B94B5B6D23F4407136
:1058F000D7F81431D3F88030B54A0B43536503E031
:1059000097F8273187F82631D7F81431D3E90023E7
:1059100002F48013BB650023FB65D7E916120B4622
:10592000134309D0AA4B1B6D23F00041D7F8143163
:105930005B6FA74A0B431365D7F81431D3E90023F3
:1059400002F080533B6500237B65D7E914120B46B8
:1059500013430AD09E4B1B6923F48041D7F81431BE
:10596000D3F8B8309A4A0B431361D7F81431D3E90E
:10597000002302F40013BB640023FB64D7E9121276
:105980000B46134309D0924B1B6D23F08071D7F85F
:105990001431DB6E8E4A0B431365D7F81431D3E90B
:1059A000002302F080433B6400237B64D7E910129C
:1059B0000B4613430ED0864B1B69854A23F40043E4
:1059C0001361834B1969D7F81431D3F8BC30804A7E
:1059D0000B431361D7F81431D3E9002302F00043DD
:1059E000BB630023FB63D7E90E120B46134309D0B8
:1059F000774BDB6C23F04051D7F814315B6D744A60
:105A00000B43D364D7F81431D3E9002302F4000325
:105A10003B6300237B63D7E90C120B4613430AD088
:105A20006B4B5B6D23F44001D7F81431D3F88C3005
:105A3000674A0B435365D7F81431D3E9002300219B
:105A4000B96203F00103FB62D7E90A120B46134364
:105A500011D0D7F8143108330021184600F078FB34
:105A6000034687F8273197F82731002B03D097F8A2
:105A7000273187F82631D7F81431D3E900230021E4
:105A8000396203F002037B62D7E908120B46134325
:105A900011D0D7F8143108330121184600F058FB13
:105AA000034687F8273197F82731002B03D097F862
:105AB000273187F82631D7F81431D3E900230021A4
:105AC000B96103F00403FB61D7E906120B461343E7
:105AD00011D0D7F8143108330221184600F038FBF2
