:020000040810E2
:1000000000800410251B1008111910081919100878
:1000100021191008291910083119100800000000D2
:100020000000000000000000000000003919100866
:10003000471910080000000055191008631910082E
:10004000751B1008751B1008751B1008751B100810
:10005000751B1008751B1008751B1008751B100800
:10006000751B1008751B1008751B1008751B1008F0
:10007000751B1008751B1008751B1008751B1008E0
:10008000751B1008751B1008751B1008751B1008D0
:10009000751B1008751B1008751B1008751B1008C0
:1000A000751B1008751B1008751B1008751B1008B0
:1000B000751B1008751B1008751B1008751B1008A0
:1000C000751B1008751B1008751B1008751B100890
:1000D000751B1008751B1008751B1008751B100880
:1000E000751B1008751B100800000000751B100818
:1000F000751B1008751B1008751B1008751B100860
:10010000751B1008751B1008751B1008751B10084F
:10011000751B1008751B1008751B10087119100845
:10012000751B1008751B1008751B1008751B10082F
:10013000751B1008751B1008751B1008751B10081F
:10014000751B1008751B100800000000000000005F
:10015000751B1008751B1008751B1008751B1008FF
:10016000751B1008751B1008751B1008751B1008EF
:10017000751B1008751B1008751B1008751B1008DF
:10018000751B1008751B100885191008751B1008C1
:10019000751B1008751B1008751B1008751B1008BF
:1001A000751B1008751B1008751B1008751B1008AF
:1001B000751B1008751B1008751B1008751B10089F
:1001C000751B1008751B1008751B1008751B10088F
:1001D000751B1008751B1008751B1008751B10087F
:1001E000751B1008751B1008751B1008751B10086F
:1001F000751B1008751B1008751B1008751B10085F
:10020000751B1008751B1008751B1008751B10084E
:10021000751B1008751B1008751B1008751B10083E
:10022000751B1008751B1008751B100800000000D6
:10023000751B1008751B1008751B1008751B10081E
:10024000751B1008751B1008751B1008751B10080E
:10025000751B1008751B1008751B1008751B1008FE
:10026000751B1008751B1008751B1008751B1008EE
:10027000751B1008751B1008751B1008751B1008DE
:10028000751B1008751B1008751B10080000000076
:08029000751B1008751B100816
:1002A00010B5054C237833B9044B13B10448AFF3B0
:1002B00000800123237010BDD80200100000000050
:1002C00018A6120808B5034B1BB103490348AFF346
:1002D000008008BD00000000DC02001018A6120813
:1002E00010F8012B11F8013B012A28BF9A42F7D0E0
:1002F000D01A70470000000000000000000000005D
:1003000001F0FF01102A2BDB10F0070F08D010F8C6
:10031000013B013A8B422DD010F0070F42B3F6D1CA
:10032000F0B441EA012141EA014122F007047FF0E3
:1003300000070023F0E80256083C85EA010586EA3A
:10034000010685FA47F5A3FA87F586FA47F6A5FA76
:1003500087F68EB9EED1F0BC01F0FF0102F0070282
:1003600032B110F8013B013A83EA010313B1F8D12D
:100370000020704701387047002D06BF354603380E
:10038000073815F0010F07D1013015F4807F02BF47
:10039000013015F4C03F0130F0BC0138704700BF98
:1003A000034613F8012B002AFBD1181A01387047B5
:1003B00081F0004102E000BF83F0004330B54FEA16
:1003C00041044FEA430594EA050F08BF90EA020F83
:1003D0001FBF54EA000C55EA020C7FEA645C7FEA16
:1003E000655C00F0E2804FEA5454D4EB5555B8BF39
:1003F0006D420CDD2C4480EA020281EA030382EAAA
:10040000000083EA010180EA020281EA0303362D3B
:1004100088BF30BD11F0004F4FEA01314FF4801C0E
:100420004CEA113102D0404261EB410113F0004F20
:100430004FEA03334CEA133302D0524263EB4303D7
:1004400094EA050F00F0A780A4F10104D5F1200E75
:100450000DDB02FA0EFC22FA05F2801841F10001D0
:1004600003FA0EF2801843FA05F359410EE0A5F1A4
:1004700020050EF1200E012A03FA0EFC28BF4CF0D5
:10048000020C43FA05F3C01851EBE37101F000458B
:1004900007D54FF0000EDCF1000C7EEB00006EEB98
:1004A0000101B1F5801F1BD3B1F5001F0CD3490822
:1004B0005FEA30004FEA3C0C04F101044FEA445279
:1004C00012F5800F80F09A80BCF1004F08BF5FEA00
:1004D000500C50F1000041EB045141EA050130BDE0
:1004E0005FEA4C0C404141EB0101013C28BFB1F5F2
:1004F000801FE9D291F0000F04BF01460020B1FA3D
:1005000081F308BF2033A3F10B03B3F120020CDA0F
:100510000C3208DD02F1140CC2F10C0201FA0CF0ED
:1005200021FA02F10CE002F11402D8BFC2F1200C52
:1005300001FA02F120FA0CFCDCBF41EA0C01904008
:10054000E41AA2BF01EB0451294330BD6FEA040451
:100550001F3C1CDA0C340EDC04F11404C4F120023C
:1005600020FA04F001FA02F340EA030021FA04F34E
:1005700045EA030130BDC4F10C04C4F1200220FAA5
:1005800002F001FA04F340EA0300294630BD21FAE3
:1005900004F0294630BD94F0000F83F4801306BFA9
:1005A00081F480110134013D4EE77FEA645C18BF9D
:1005B0007FEA655C29D094EA050F08BF90EA020F34
:1005C00005D054EA000C04BF1946104630BD91EA2C
:1005D000030F1EBF0021002030BD5FEA545C05D12F
:1005E0004000494128BF41F0004130BD14F580046E
:1005F0003CBF01F5801130BD01F0004545F0FE41E2
:1006000041F470014FF0000030BD7FEA645C1ABF16
:10061000194610467FEA655C1CBF0B46024650EA4D
:10062000013406BF52EA033591EA030F41F4002179
:1006300030BD00BF90F0000F04BF0021704730B5FF
:100640004FF4806404F132044FF000054FF00001D4
:1006500050E700BF90F0000F04BF0021704730B595
:100660004FF4806404F1320410F0004548BF40426A
:100670004FF000013EE700BF42004FEAE2014FEABF
:1006800031014FEA02701FBF12F07F4393F07F4F9A
:1006900081F06051704732F07F4208BF704793F09D
:1006A0007F4F04BF41F40021704730B54FF46074B0
:1006B00001F0004521F000411CE700BF50EA0102B3
:1006C00008BF704730B54FF000050AE050EA01025C
:1006D00008BF704730B511F0004502D5404261EBCC
:1006E00041014FF4806404F132045FEA915C3FF40D
:1006F000D8AE4FF003025FEADC0C18BF03325FEAAA
:10070000DC0C18BF033202EBDC02C2F1200300FA5A
:1007100003FC20FA02F001FA03FE40EA0E0021FA7F
:1007200002F11444BDE600BF70B54FF0FF0C4CF46D
:10073000E06C1CEA11541DBF1CEA135594EA0C0F1F
:1007400095EA0C0F00F0DEF82C4481EA030621EA5A
:100750004C5123EA4C5350EA013518BF52EA033595
:1007600041F4801143F4801338D0A0FB02CE4FF047
:100770000005E1FB02E506F00042E0FB03E54FF077
:100780000006E1FB03569CF0000F18BF4EF0010E6F
:10079000A4F1FF04B6F5007F64F5407404D25FEA6B
:1007A0004E0E6D4146EB060642EAC62141EA55511E
:1007B0004FEAC52040EA5E504FEACE2EB4F1FD0C60
:1007C00088BFBCF5E06F1ED8BEF1004F08BF5FEADE
:1007D000500E50F1000041EB045170BD06F0004690
:1007E00046EA010140EA020081EA0301B4EB5C043D
:1007F000C2BFD4EB0C0541EA045170BD41F4801135
:100800004FF0000E013C00F3AB8014F1360FDEBF59
:10081000002001F0004170BDC4F10004203C35DA35
:100820000C341BDC04F11404C4F1200500FA05F3B8
:1008300020FA04F001FA05F240EA020001F0004259
:1008400021F0004110EBD37021FA04F642EB0601CF
:100850005EEA430E08BF20EAD37070BDC4F10C04F9
:10086000C4F1200500FA04F320FA05F001FA04F2BD
:1008700040EA020001F0004110EBD37041F10001A9
:100880005EEA430E08BF20EAD37070BDC4F12005B4
:1008900000FA05F24EEA020E20FA04F301FA05F21C
:1008A00043EA020321FA04F001F0004121FA04F2C4
:1008B00020EA020000EBD3705EEA430E08BF20EA94
:1008C000D37070BD94F0000F0FD101F000464000CE
:1008D00041EB010111F4801F08BF013CF7D041EA50
:1008E000060195F0000F18BF704703F00046520054
:1008F00043EB030313F4801F08BF013DF7D043EA25
:100900000603704794EA0C0F0CEA135518BF95EADA
:100910000C0F0CD050EA410618BF52EA4306D1D161
:1009200081EA030101F000414FF0000070BD50EA80
:10093000410606BF1046194652EA430619D094EA0A
:100940000C0F02D150EA013613D195EA0C0F05D1F4
:1009500052EA03361CBF104619460AD181EA030148
:1009600001F0004141F0FE4141F470014FF0000000
:1009700070BD41F0FE4141F4780170BD70B54FF09B
:10098000FF0C4CF4E06C1CEA11541DBF1CEA13551B
:1009900094EA0C0F95EA0C0F00F0A7F8A4EB0504FD
:1009A00081EA030E52EA03354FEA013100F08880F4
:1009B0004FEA03334FF0805545EA131343EA1263BD
:1009C0004FEA022245EA111545EA10654FEA002672
:1009D0000EF000419D4208BF964244F1FD0404F52B
:1009E000407402D25B084FEA3202B61A65EB030587
:1009F0005B084FEA32024FF480104FF4002CB6EB44
:100A0000020E75EB030E22BFB61A754640EA0C00C3
:100A10005B084FEA3202B6EB020E75EB030E22BF03
:100A2000B61A754640EA5C005B084FEA3202B6EB44
:100A3000020E75EB030E22BFB61A754640EA9C0003
:100A40005B084FEA3202B6EB020E75EB030E22BFD3
:100A5000B61A754640EADC0055EA060E18D04FEA91
:100A6000051545EA16754FEA06164FEAC30343EA31
:100A700052734FEAC2025FEA1C1CC0D111F4801FFE
:100A80000BD141EA00014FF000004FF0004CB6E7F7
:100A900011F4801F04BF01430020B4F1FD0C88BF96
:100AA000BCF5E06F3FF6AFAEB5EB030C04BFB6EBA1
:100AB000020C5FEA500C50F1000041EB045170BD94
:100AC0000EF0004E4EEA113114EB5C04C2BFD4EBC1
:100AD0000C0541EA045170BD41F480114FF0000E45
:100AE000013C90E645EA060E8DE60CEA135594EAC1
:100AF0000C0F08BF95EA0C0F3FF43BAF94EA0C0FC4
:100B00000AD150EA01347FF434AF95EA0C0F7FF438
:100B100025AF104619462CE795EA0C0F06D152EA8C
:100B200003353FF4FDAE1046194622E750EA410670
:100B300018BF52EA43067FF4C5AE50EA41047FF481
:100B40000DAF52EA43057FF4EBAE12E74FF0FF3CE6
:100B500006E000BF4FF0010C02E000BF4FF0010CB7
:100B60004DF804CD4FEA410C7FEA6C5C4FEA430C30
:100B700018BF7FEA6C5C1BD001B050EA410C0CBF7F
:100B800052EA430C91EA030F02BF90EA020F0020E1
:100B9000704710F1000F91EA030F58BF994208BF48
:100BA00090422CBFD8176FEAE37040F00100704705
:100BB0004FEA410C7FEA6C5C02D150EA013C07D15C
:100BC0004FEA430C7FEA6C5CD6D152EA033CD3D0A7
:100BD0005DF8040B704700BF8446104662468C46A1
:100BE0001946634600E000BF01B5FFF7B7FF0028D4
:100BF00048BF10F1000F01BD4DF808EDFFF7F4FFFD
:100C00000CBF012000205DF808FB00BF4DF808ED87
:100C1000FFF7EAFF34BF012000205DF808FB00BFAA
:100C20004DF808EDFFF7E0FF94BF012000205DF8CC
:100C300008FB00BF4DF808EDFFF7CEFF94BF012081
:100C400000205DF808FB00BF4DF808EDFFF7C4FF7A
:100C500034BF012000205DF808FB00BF4FEA410CC3
:100C60007FEA6C5C02D150EA013C0AD14FEA430CA6
:100C70007FEA6C5C02D152EA033C02D14FF00000E3
:100C800070474FF0010070474FEA410212F5001221
:100C900015D211D56FF47873B3EB625212D94FEAC3
:100CA000C12343F0004343EA505311F0004F23FAAD
:100CB00002F018BF404270474FF00000704750EA02
:100CC000013005D111F0004008BF6FF000407047BF
:100CD0004FF00000704700BF4A0011D212F5001219
:100CE00011D20DD56FF47873B3EB62520ED44FEA84
:100CF000C12343F0004343EA505323FA02F0704704
:100D00004FF00000704750EA013002D14FF0FF3041
:100D100070474FF0000070474FEA4102B2F1E043E4
:100D200024BFB3F5001CDCF1FE5C0DD901F0004CD2
:100D30004FEAC0024CEA5070B2F1004F40EB830022
:100D400008BF20F00100704711F0804F21D113F14E
:100D50003872BCBF01F00040704741F480114FEA87
:100D60005252C2F11802C2F1200C10FA0CF320FA10
:100D700002F018BF40F001004FEAC1234FEAD3232D
:100D800003FA0CFC40EA0C0023FA02F34FEA430397
:100D9000CCE77FEA625307D150EA01331EBF4FF020
:100DA000FE4040F44000704701F0004040F0FE403B
:100DB00040F40000704700BF7BB972B90029BEBF84
:100DC00000204FF0004106E008BF00281CBF6FF074
:100DD00000414FF0FF3000F0EBB9ADF1080C6DE9C8
:100DE00004CE002909DB002B1ADB00F083F8DDF8C4
:100DF00004E0DDE9022304B07047404261EB4101A9
:100E0000002B1BDB00F076F8DDF804E0DDE90223BF
:100E100004B0404261EB4101524263EB430370472F
:100E2000524263EB430300F065F8DDF804E0DDE9CE
:100E3000022304B0404261EB41017047524263EB30
:100E4000430300F057F8DDF804E0DDE9022304B0C5
:100E5000524263EB4303704753B94AB9002908BFB4
:100E600000281CBF4FF0FF314FF0FF3000F0A0B959
:100E7000ADF1080C6DE904CE00F03CF8DDF804E0BB
:100E8000DDE9022304B0704738B500220023044690
:100E90000D46FFF7BBFE28B920462946BDE838407D
:100EA00000F00AB8204605F1004100F005F8404284
:100EB00061EB410138BD00BFD0B50C4B00220646A6
:100EC0000F46FFF731FCFFF707FF0446FFF7B2FBC1
:100ED000074B0022FFF728FC02460B4630463946F6
:100EE000FFF76AFAFFF7F8FE2146D0BD0000F03D9B
:100EF0000000F0412DE9F047089D0C46002B4ED133
:100F000094468C458646B2FA82F262D94AB1C2F161
:100F10002003914020FA03F30CFA02FC194300FA73
:100F200002FE4FEA1C471FFA8CF6B1FBF7F44FEABA
:100F30001E4307FB141143EA014304FB06F19942E7
:100F40000AD91CEB030304F1FF3080F012819942AF
:100F500040F20F81023C6344591A1FFA8EF3B1FB31
:100F6000F7F007FB101143EA014300FB06F69E422F
:100F70000AD91CEB030300F1FF3180F0FC809E4294
:100F800040F2F980634402389B1B40EA0440002190
:100F90001DB1D3400022C5E90032BDE8F0878B4285
:100FA00005D90DB1C5E9000100210846F5E7B3FAFE
:100FB00083F1002946D1A34202D39042C0F0F080D1
:100FC000861A64EB03030120002DE6D0C5E9006317
:100FD000E3E7002A40F09080A1EB0C044FEA1C48A4
:100FE0001FFA8CF70121B4FBF8F64FEA1E4308FB09
:100FF000164443EA044307FB06F0984208D91CEB69
:10100000030306F1FF3402D2984200F2CD80264657
:101010001C1A1FFA8EF3B4FBF8F008FB104443EAE5
:10102000044300FB07F79F4208D91CEB030300F1C0
:10103000FF3402D29F4200F2B0802046DB1B40EA20
:101040000640A5E7C1F120068B4022FA06F71F43B0
:1010500020FA06FC04FA01F343EA0C03F44000FA18
:1010600001F8380C4FEA1349B4FBF0FE1FFA87FC75
:1010700000FB1E4449EA04440EFB0CF9A14502FAA8
:1010800001F20AD93C190EF1FF3A80F08480A145A3
:1010900040F28180AEF1020E3C44A4EB09041FFA39
:1010A00083F9B4FBF0F300FB134449EA044403FB67
:1010B0000CFCA44507D93C1903F1FF3067D2A445C5
:1010C00065D9023B3C4443EA0E40A0FB0293A4EBEB
:1010D0000C049C42CE469C4651D34ED055B1B8EB41
:1010E0000E0364EB0C0404FA06F6CB401E43CC401E
:1010F000C5E90064002150E7C2F1200320FA03F1A2
:101100000CFA02FC24FA03F394400C434FEA1C4807
:1011100000FA02FE1FFA8CF7B3FBF8F008FB10315F
:10112000230C43EA014300FB07F1994208D91CEB69
:10113000030300F1FF362CD299422AD902386344C6
:101140005B1AA4B2B3FBF8F108FB113344EA034481
:1011500001FB07F3A34208D91CEB040401F1FF369D
:1011600013D2A34211D902396444E41A41EA00417E
:1011700039E70446F0E6084606E7C845AED2B9EBC3
:10118000020E63EB070C0138A8E73146EDE7034692
:1011900099E73046D4E7D6467FE7634402384DE707
:1011A0000646234608460FE7023E634430E700BF89
:1011B000704700BF80B400AF094BD3F88830084AAD
:1011C00043F47003C2F88830054B1B69044A43F0AE
:1011D0001003136100BFBD465DF8047B704700BF7C
:1011E00000ED00E080B582B000AF786039607B68C8
:1011F000012B07D13B684FF6FF72934202D1094899
:1012000005F074FE7B68002B07D13B684FF6FF7238
:10121000934202D1034805F095FF00BF0837BD4651
:1012200080BD00BFF402001080B500AF4FF6FF7123
:101230000120FFF7D7FF80BD80B500AF4FF6FF71EB
:101240000020FFF7CFFF80BD80B582B000AF78608F
:101250007B68002B05D172B600BF00F0C5F900BF56
:10126000FDE77B6800221A707B6800225A7000BF7D
:101270000837BD4680BD80B584B000AF7860EFF31D
:101280001083BB60BB68DBB203F00103FB7372B673
:1012900000BFBFF34F8F00BFBFF36F8F00BF7B68EE
:1012A000002B05D172B600BF00F09EF900BFFDE72C
:1012B0007B685B78002B03D17B68FA7B1A7009E0AE
:1012C0007B685B78FF2B05D172B600BF00F08CF90C
:1012D00000BFFDE77B685B780133DAB27B685A7048
:1012E00000BF1037BD4680BD80B582B000AF7860CA
:1012F0007B68002B05D172B600BF00F075F900BF06
:10130000FDE77B685B78002B05D172B600BF00F06B
:101310006BF900BFFDE77B685B78013BDAB27B6865
:101320005A707B685B78002B05D17B681B78002B9B
:1013300001D162B600BF00BF0837BD4680BD80B591
:1013400084B000AFF860B9607A60FB68BA685A6030
:10135000FB687A689A60FB680022DA60FB6800220A
:101360001A61FB6800221A75FB681846FFF76CFFCC
:10137000FB6818461037BD4680BD80B586B000AF0B
:10138000F860B9607A60FB681846FFF774FF0023C5
:101390007B6133E0BA687B691A44FB685968FB6873
:1013A000DB680B4412781A70FB681B7D002B0BD096
:1013B000FB681B690133FA689268B3FBF2F101FB29
:1013C00002F29A1AFB681A61FB68DB680133FA685B
:1013D0009268B3FBF2F101FB02F29A1AFB68DA6041
:1013E000FB68DA68FB681B699A420CBF0123002383
:1013F000DAB2FB681A757B6901337B617A697B68B5
:101400009A42C7D3FB681846FFF76EFF00BF183734
:10141000BD4680BD80B582B000AF1F4BD3F8E03031
:101420001D4A43F00073C2F8E0301B4BD3F8E030A4
:1014300003F000737B607B68012001F057FC01F032
:10144000E1FC01220221002001F062FC134B1B6829
:101450001B0903F00F03072B08D1114BD3F80431FC
:101460000F4A43F00103C2F8043107E00C4BD3F8F4
:1014700014310B4A43F00103C2F8143100F07CFB35
:1014800000F05CF800F00EF800F0CAF800231846EF
:101490000837BD4680BD00BF0044025800ED00E0A3
:1014A0000064025880B500AF224B234A1A60214BDA
:1014B0004FF4E1325A601F4B00229A601D4B00220C
:1014C000DA601C4B00221A611A4B0C225A61194B2C
:1014D00000229A61174B0022DA61164B00221A6231
:1014E000144B00225A62134B00229A62114803F0F7
:1014F000B7FF0346002B01D000F076F800210D481D
:1015000005F0F1FB0346002B01D000F06DF800213F
:10151000084805F026FC0346002B01D000F064F8D3
:10152000044805F0A7FB0346002B01D000F05CF84F
:1015300000BF80BDF80200100078004080B588B080
:1015400000AF07F10C0300221A605A609A60DA605B
:101550001A611A4BD3F8E030184A43F00203C2F87C
:10156000E030164BD3F8E03003F00203BB60BB68F9
:10157000124BD3F8E030114A43F00103C2F8E030D7
:101580000E4BD3F8E03003F001037B607B68002250
:1015900004210B4801F076FB0423FB6001233B612F
:1015A00000237B610023BB6107F10C03194604484B
:1015B00001F0B8F900BF2037BD4680BD0044025895
:1015C0000004025880B582B000AF78607B681B6869
:1015D000044A934201D100F02DFB00BF0837BD46FD
:1015E00080BD00BF0014004080B400AF72B600BFE1
:1015F00000BFFDE780B584B000AFF860B9607A60E5
:101600003B60FB687A68B9681846FFF798FEFB688C
:101610003A689A61FB6818461037BD4680BD0000E5
:101620002DE9B043A4B000AF07F168002A4B802237
:101630002A49FFF7DFFF2A4B07F140041D460FCD73
:101640000FC40FCD0FC495E803002060043421704F
:1016500007F1400107F1680324221846FFF78DFEC9
:1016600000F0FCFAC7F88C001E4B1B68D7F88C20E2
:10167000D31AC7F8843007F184031B49184600F0D9
:101680003BF80346002BEBD0164AD7F88C3013609A
:101690000421164801F00FFB154BD3E9002312F18A
:1016A000010843F10009124BC3E90089104822F0F8
:1016B0005FFFC7F8880000233B603B1D3C220021F0
:1016C000184622F0D5FC3846D7F88830094A402120
:1016D00023F07EFDC4E700BFF80200108C03001069
:1016E00050A612080C04001094A612080004025818
:1016F0001000001030A6120880B483B000AF7860EC
:1017000039607B681A683B681B689A428CBF01236A
:101710000023DBB218460C37BD465DF8047B7047EA
:1017200080B483B000AF0A4BD3F8F430084A43F0DA
:101730000203C2F8F430064BD3F8F43003F002038E
:101740007B607B6800BF0C37BD465DF8047B70474B
:101750000044025880B5BAB000AF786007F1D403F6
:1017600000221A605A609A60DA601A6107F1100369
:10177000C0220021184622F07BFC7B681B682B4AA4
:1017800093424ED14FF002024FF00003C7E9042309
:101790000423C7F8883007F11003184601F05AFDFA
:1017A0000346002B01D0FFF71FFF214BD3F8E83091
:1017B0001F4A43F08043C2F8E8301D4BD3F8E830AD
:1017C00003F08043FB60FB68194BD3F8E030184A04
:1017D00043F00103C2F8E030154BD3F8E03003F0DA
:1017E0000103BB60BB684FF40143C7F8D430022348
:1017F000C7F8D8300023C7F8DC300023C7F8E03042
:101800000B23C7F8E43007F1D4031946094801F067
:1018100089F800220021522000F0E4FA522000F062
:10182000FBFA00BFE837BD4680BD00BF007800402E
:10183000004402580000025880B590B000AF7860B4
:101840007B680F2B27D800227968372000F0CAFA6E
:10185000372000F0E1FA294A7B681360284BD3F85F
:10186000E830274A43F02003C2F8E830244BD3F88D
:10187000E83003F02003FB60FB6807F1100207F17A
:1018800014031146184601F0A3FCBB6ABB63BB6B93
:10189000002B06D101E001232BE001F06DFCF86381
:1018A00004E001F069FC03465B00FB63FB6B154A37
:1018B000A2FB03239B0C013B7B63134B134A1A606F
:1018C000114B40F2E732DA600F4A7B6B53600E4BEC
:1018D00000221A610C4B00229A600B4803F0E6FAD2
:1018E0000346002B04D1084803F042FB034600E006
:1018F000012318464037BD4680BD00BF1C000010C4
:101900000044025883DE1B43100400100014004002
:1019100080B400AF00BFFDE780B400AF00BFFDE7BB
:1019200080B400AF00BFFDE780B400AF00BFFDE7AB
:1019300080B400AF00BFFDE780B400AF00BFBD467C
:101940005DF8047B704780B400AF00BFBD465DF812
:10195000047B704780B400AF00BFBD465DF8047BD8
:10196000704780B400AF00BFBD465DF8047B704790
:1019700080B500AF024803F073FB00BF80BD00BF1D
:101980001004001080B500AF024803F0B9FD00BF9D
:1019900080BD00BFF802001080B400AF01231846DC
:1019A000BD465DF8047B704780B582B000AF7860BB
:1019B000396024F0C5FC034616221A604FF0FF334D
:1019C00018460837BD4680BD80B582B000AF78604C
:1019D0004FF0FF317868FFF7E7FF00BFFDE780B504
:1019E00086B000AFF860B9607A6000237B610AE0DE
:1019F000AFF300800146BB685A1CBA60CAB21A70C5
:101A00007B6901337B617A697B689A42F0DB7B6892
:101A100018461837BD4680BD80B586B000AFF86067
:101A2000B9607A6000237B6109E0BB685A1CBA6028
:101A30001B781846AFF300807B6901337B617A69BC
:101A40007B689A42F1DB7B6818461837BD4680BD3B
:101A500080B483B000AF78604FF0FF3318460C3786
:101A6000BD465DF8047B704780B483B000AF7860FA
:101A700039603B684FF400525A60002318460C3717
:101A8000BD465DF8047B704780B483B000AF7860DA
:101A9000012318460C37BD465DF8047B704780B4BF
:101AA00085B000AFF860B9607A600023184614373B
:101AB000BD465DF8047B704780B586B000AF7860A6
:101AC000144A154BD31A7B617B693B61134B1B682E
:101AD000002B02D1114B124A1A60104B1A687B6816
:101AE00013443A699A4207D224F02AFC03460C2296
:101AF0001A604FF0FF3309E0084B1B68FB60074B8F
:101B00001A687B681344054A1360FB681846183747
:101B1000BD4680BD00800410000400006004001079
:101B2000201C0010DFF834D0FFF744FB0C480D49AF
:101B30000D4A002302E0D458C4500433C4188C4228
:101B4000F9D30A4A0A4C002301E013600432A2428E
:101B5000FBD324F0FBFBFFF75DFC70470080041013
:101B600000000010D802001084EF1208D802001004
:101B7000201C0010FEE7000080B582B000AF284BAB
:101B8000D3F8D830264A43F48043C2F8D830244BE7
:101B9000D3F8D83003F480433B603B68214B1B688B
:101BA00023F47F2323F470631E4A43F4014313603C
:101BB0001C4B1B681B4A43F001031360032000F019
:101BC00006F901F02DF90246154B9B691B0A03F03B
:101BD0000F031549CB5C03F01F0322FA03F37B606C
:101BE0000F4B9B6903F00F030F4AD35C03F01F03F5
:101BF0007A6822FA03F30D4A13600C4B1B680C4AF7
:101C000013600F20FFF718FE0346002B01D00123BD
:101C100002E0FFF785FD002318460837BD4680BD6A
:101C2000004402580044024084A612080800001034
:101C30000400001080B400AF064B1B781A46064B18
:101C40001B681344044A136000BFBD465DF8047B63
:101C5000704700BF200000106404001080B400AF83
:101C6000034B1B681846BD465DF8047B704700BFF8
:101C70006404001080B485B000AF78607B6803F026
:101C80000703FB600C4BDB68BB60BA684FF6FF03D1
:101C90001340BB60FB681A02BB68134343F0BF6389
:101CA00043F40033BB60044ABB68D36000BF143701
:101CB000BD465DF8047B704700ED00E080B400AFE6
:101CC000044BDB681B0A03F007031846BD465DF8AA
:101CD000047B704700ED00E080B483B000AF0346A2
:101CE000FB80B7F90630002B0BDBFB8803F01F02EB
:101CF0000749B7F906305B09012000FA02F241F802
:101D0000232000BF0C37BD465DF8047B704700BF41
:101D100000E100E080B483B000AF03463960FB808F
:101D2000B7F90630002B0ADB3B68DAB20C49B7F989
:101D300006301201D2B20B4483F800230AE03B685C
:101D4000DAB20849FB8803F00F03043B1201D2B258
:101D50000B441A7600BF0C37BD465DF8047B704714
:101D600000E100E000ED00E080B489B000AFF86071
:101D7000B9607A60FB6803F00703FB61FB69C3F19C
:101D80000703042B28BF0423BB61FB690433062B24
:101D900002D9FB69033B00E000237B614FF0FF3277
:101DA000BB6902FA03F3DA43BB681A407B699A40C5
:101DB0004FF0FF317B6901FA03F3D9437B680B4095
:101DC000134318462437BD465DF8047B704780B541
:101DD00082B000AF78607868FFF74CFF00BF08372B
:101DE000BD4680BD80B586B000AF0346B9607A605D
:101DF000FB81FFF763FF78617A68B9687869FFF75C
:101E0000B3FF0246B7F90E3011461846FFF782FFBE
:101E100000BF1837BD4680BD80B582B000AF034615
:101E2000FB80B7F906301846FFF756FF00BF0837AA
:101E3000BD4680BD80B400AF074B1B681B0903F093
:101E40000F03072B01D1032300E001231846BD46F1
:101E50005DF8047B704700BF00ED00E080B586B000
:101E600000AF7860FFF7FAFE38617B68002B01D184
:101E70000123DCE27B6893F83530DBB2022B08D01B
:101E80007B6880225A657B68002283F83420012316
:101E9000CDE27B681B68764A93424AD07B681B6818
:101EA000744A934245D07B681B68734A934240D082
:101EB0007B681B68714A93423BD07B681B68704A01
:101EC000934236D07B681B686E4A934231D07B6860
:101ED0001B686D4A93422CD07B681B686B4A934207
:101EE00027D07B681B686A4A934222D07B681B68B4
:101EF000684A93421DD07B681B68674A934218D09A
:101F00007B681B68654A934213D07B681B68644AF0
:101F100093420ED07B681B68624A934209D07B686B
:101F20001B68614A934204D07B681B685F4A9342F6
:101F300001D1012300E00023002B13D07B681B6834
:101F40001A687B681B6822F01E021A607B681B6897
:101F50005A697B681B6822F080025A617B681B68A3
:101F60007B610AE07B681B681A687B681B6822F04B
:101F70000E021A607B681B687B617B681B683C4AA9
:101F8000934272D07B681B683A4A93426DD07B685B
:101F90001B68394A934268D07B681B68374A934272
:101FA00063D07B681B68364A93425ED07B681B68AF
:101FB000344A934259D07B681B68334A934254D0C9
:101FC0007B681B68314A93424FD07B681B68304A5C
:101FD00093424AD07B681B682E4A934245D07B6867
:101FE0001B682D4A934240D07B681B682B4A934262
:101FF0003BD07B681B682A4A934236D07B681B68BB
:10200000284A934231D07B681B68274A93422CD0E0
:102010007B681B68254A934227D07B681B68244A4B
:10202000934222D07B681B68224A93421DD07B6872
:102030001B68214A934218D07B681B681F4A934251
:1020400013D07B681B681E4A93420ED07B681B68C6
:102050001C4A934209D07B681B681B4A934204D0F8
:102060007B681B68194A934232D1012331E000BFDB
:102070001000024028000240400002405800024088
:102080007000024088000240A0000240B8000240F8
:102090001004024028040240400402405804024058
:1020A0007004024088040240A0040240B8040240C8
:1020B000085402581C5402583054025844540258D0
:1020C000585402586C540258805402589454025880
:1020D0000023002B07D07B681B6E1A687B681B6E81
:1020E00022F480721A607B681B686D4A93424AD062
:1020F0007B681B686B4A934245D07B681B686A4AC1
:10210000934240D07B681B68684A93423BD07B680F
:102110001B68674A934236D07B681B68654A9342C6
:1021200031D07B681B68644A93422CD07B681B6863
:10213000624A934227D07B681B68614A934222D04F
:102140007B681B685F4A93421DD07B681B685E4AB0
:10215000934218D07B681B685C4A934213D07B681B
:102160001B685B4A93420ED07B681B68594A9342B6
:1021700009D07B681B68584A934204D07B681B686F
:10218000564A934208D17B681B681A687B681B68B3
:1021900022F001021A6007E07B681B681A687B68FE
:1021A0001B6822F001021A6013E0FFF757FD024698
:1021B0003B69D31A052B0CD97B6820225A657B68B2
:1021C000032283F835207B68002283F83420012322
:1021D0002DE17B691B6803F00103002BE5D17B68CF
:1021E0001B682F4A93424AD07B681B682D4A934252
:1021F00045D07B681B682C4A934240D07B681B68A3
:102200002A4A93423BD07B681B68294A934236D0C6
:102210007B681B68274A934231D07B681B68264A3B
:1022200093422CD07B681B68244A934227D07B685A
:102230001B68234A934222D07B681B68214A934241
:102240001DD07B681B68204A934218D07B681B68AE
:102250001E4A934213D07B681B681D4A93420ED0DE
:102260007B681B681B4A934209D07B681B681A4A2B
:10227000934204D07B681B68184A934201D1012322
:1022800000E00023002B2BD07B689B6DBB607B683C
:10229000DB6D03F01F033F229A40BB689A602AE07F
:1022A0001000024028000240400002405800024056
:1022B0007000024088000240A0000240B8000240C6
:1022C0001004024028040240400402405804024026
:1022D0007004024088040240A0040240B804024096
:1022E0007B689B6DFB607B68DB6D03F01F03012245
:1022F0009A40FB685A607B681B684F4A934272D0D1
:102300007B681B684D4A93426DD07B681B684C4AC2
:10231000934268D07B681B684A4A934263D07B68CB
:102320001B68494A93425ED07B681B68474A9342C8
:1023300059D07B681B68464A934254D07B681B681F
:10234000444A93424FD07B681B68434A93424AD029
:102350007B681B68414A934245D07B681B68404AB2
:10236000934240D07B681B683E4A93423BD07B68D7
:102370001B683D4A934236D07B681B683B4A9342B8
:1023800031D07B681B683A4A93422CD07B681B682B
:10239000384A934227D07B681B68374A934222D041
:1023A0007B681B68354A93421DD07B681B68344AA2
:1023B000934218D07B681B68324A934213D07B68E3
:1023C0001B68314A93420ED07B681B682F4A9342A8
:1023D00009D07B681B682E4A934204D07B681B6837
:1023E0002C4A934201D1012300E00023002B15D099
:1023F0007B685B6E7A68926E5A607B68DB6E002B3E
:102400000CD07B68DB6E1A687B68DB6E22F480720E
:102410001A607B681B6F7A68526F5A607B68012272
:1024200083F835207B68002283F834200023184687
:102430001837BD4680BD00BF100002402800024092
:1024400040000240580002407000024088000240F4
:10245000A0000240B80002401004024028040240DC
:1024600040040240580402407004024088040240C4
:10247000A0040240B8040240085402581C540258F8
:102480003054025844540258585402586C5402585C
:10249000805402589454025880B584B000AF7860DC
:1024A0007B68002B01D1012337E27B6893F835303C
:1024B000DBB2022B04D07B6880225A6501232CE218
:1024C0007B681B685C4A93424AD07B681B685B4A06
:1024D000934245D07B681B68594A934240D07B6841
:1024E0001B68584A93423BD07B681B68564A93420C
:1024F00036D07B681B68554A934231D07B681B6895
:10250000534A93422CD07B681B68524A934227D08F
:102510007B681B68504A934222D07B681B684F4AF5
:1025200093421DD07B681B684D4A934218D07B684C
:102530001B684C4A934213D07B681B684A4A9342FB
:102540000ED07B681B68494A934209D07B681B68A0
:10255000474A934204D07B681B68464A934201D1A4
:10256000012300E00023002B00F086807B6804221A
:1025700083F835207B681B682F4A93424AD07B68DA
:102580001B682E4A934245D07B681B682C4A9342B5
:1025900040D07B681B682B4A93423BD07B681B680A
:1025A000294A934236D07B681B68284A934231D02F
:1025B0007B681B68264A93422CD07B681B68254A9F
:1025C000934227D07B681B68234A934222D07B68C2
:1025D0001B68224A93421DD07B681B68204A9342A5
:1025E00018D07B681B681F4A934213D07B681B6816
:1025F0001D4A93420ED07B681B681C4A934209D047
:102600007B681B681A4A934204D07B681B68194A8E
:10261000934208D17B681B681A687B681B6822F0AC
:1026200001021A6078E17B681B681A687B681B6886
:1026300022F001021A606FE11000024028000240FF
:1026400040000240580002407000024088000240F2
:10265000A0000240B80002401004024028040240DA
:1026600040040240580402407004024088040240C2
:10267000A0040240B80402407B681B681A687B68AB
:102680001B6822F00E021A607B681B686C4A93423A
:102690004AD07B681B686B4A934245D07B681B68B5
:1026A000694A934240D07B681B68684A93423BD09A
:1026B0007B681B68664A934236D07B681B68654A14
:1026C000934231D07B681B68634A93422CD07B686D
:1026D0001B68624A934227D07B681B68604A93421A
:1026E00022D07B681B685F4A93421DD07B681B68C1
:1026F0005D4A934218D07B681B685C4A934213D0B2
:102700007B681B685A4A93420ED07B681B68594A03
:10271000934209D07B681B68574A934204D07B6878
:102720001B68564A934208D17B681B681A687B680D
:102730001B6822F001021A6007E07B681B681A68B8
:102740007B681B6822F001021A607B681B683C4AA8
:10275000934272D07B681B683A4A93426DD07B6883
:102760001B68394A934268D07B681B68374A93429A
:1027700063D07B681B68364A93425ED07B681B68D7
:10278000344A934259D07B681B68334A934254D0F1
:102790007B681B68314A93424FD07B681B68304A84
:1027A00093424AD07B681B682E4A934245D07B688F
:1027B0001B682D4A934240D07B681B682B4A93428A
:1027C0003BD07B681B682A4A934236D07B681B68E3
:1027D000284A934231D07B681B68274A93422CD009
:1027E0007B681B68254A934227D07B681B68244A74
:1027F000934222D07B681B68224A93421DD07B689B
:102800001B68214A934218D07B681B681F4A934279
:1028100013D07B681B681E4A93420ED07B681B68EE
:102820001C4A934209D07B681B681B4A934204D020
:102830007B681B68194A934232D1012331E000BF03
:1028400010000240280002404000024058000240B0
:102850007000024088000240A0000240B800024020
:102860001004024028040240400402405804024080
:102870007004024088040240A0040240B8040240F0
:10288000085402581C5402583054025844540258F8
:10289000585402586C5402588054025894540258A8
:1028A0000023002B28D07B681B6E1A687B681B6E88
:1028B00022F480721A607B689B6DFB607B68DB6D25
:1028C00003F01F0301229A40FB685A607B685B6E2D
:1028D0007A68926E5A607B68DB6E002B0CD07B6846
:1028E000DB6E1A687B68DB6E22F480721A607B688C
:1028F0001B6F7A68526F5A607B68012283F835201B
:102900007B68002283F834207B681B6D002B03D08A
:102910007B681B6D78689847002318461037BD46C2
:1029200080BD00BF80B489B000AF786039600023FB
:10293000FB61894B7B6194E13B681A680121FB696B
:1029400001FA03F313403B613B69002B00F08681E1
:102950003B685B6803F00303012B05D03B685B68B1
:1029600003F00303022B30D17B689B68BB61FB69DA
:102970005B00032202FA03F3DB43BA691340BB6135
:102980003B68DA68FB695B0002FA03F3BA69134338
:10299000BB617B68BA699A607B685B68BB61012236
:1029A000FB6902FA03F3DB43BA691340BB613B687E
:1029B0005B681B0903F00102FB6902FA03F3BA69C1
:1029C0001343BB617B68BA695A603B685B6803F07C
:1029D0000303032B17D07B68DB68BB61FB695B00DB
:1029E000032202FA03F3DB43BA691340BB613B687D
:1029F0009A68FB695B0002FA03F3BA691343BB618F
:102A00007B68BA69DA603B685B6803F00303022BFA
:102A100023D1FB69DA087B68083253F82230BB61A6
:102A2000FB6903F007039B000F2202FA03F3DB4369
:102A3000BA691340BB613B681A69FB6903F007037D
:102A40009B0002FA03F3BA691343BB61FB69DA081E
:102A50007B680832B96943F822107B681B68BB6148
:102A6000FB695B00032202FA03F3DB43BA691340FC
:102A7000BB613B685B6803F00302FB695B0002FA21
:102A800003F3BA691343BB617B68BA691A603B6898
:102A90005B6803F44033002B00F0E0802F4BD3F849
:102AA000F4302E4A43F00203C2F8F4302B4BD3F833
:102AB000F43003F00203FB60FB68294AFB699B08C2
:102AC000023352F82330BB61FB6903F003039B0020
:102AD0000F2202FA03F3DB43BA691340BB617B6840
:102AE000204A934252D07B681F4A934231D07B6880
:102AF0001E4A93422BD07B681D4A934225D07B68A7
:102B00001C4A93421FD07B681B4A934219D07B68B2
:102B10001A4A934213D07B68194A93420DD07B68BE
:102B2000184A934207D07B68174A934201D1092380
:102B30002DE00A232BE0082329E0072327E00623C2
:102B400025E0052323E0042321E003231FE00223E3
:102B50001DE001231BE000BFC000005800440258E4
:102B600000040058000002580004025800080258EF
:102B7000000C0258001002580014025800180258A5
:102B8000001C025800200258002402580023FA6951
:102B900002F0030292009340BA691343BB613849C3
:102BA000FB699B080233BA6941F823204FF0B04318
:102BB0001B68BB613B69DB43BA691340BB613B687F
:102BC0005B6803F48013002B03D0BA693B6913439D
:102BD000BB614FF0B042BB6913604FF0B0435B681C
:102BE000BB613B69DB43BA691340BB613B685B680F
:102BF00003F40013002B03D0BA693B691343BB6194
:102C00004FF0B042BB6953607B695B68BB613B6955
:102C1000DB43BA691340BB613B685B6803F4003374
:102C2000002B03D0BA693B691343BB617B69BA6966
:102C30005A607B691B68BB613B69DB43BA6913401F
:102C4000BB613B685B6803F48033002B03D0BA6937
:102C50003B691343BB617B69BA691A60FB69013345
:102C6000FB613B681A68FB6922FA03F3002B7FF4CF
:102C700063AE00BF00BF2437BD465DF8047B7047DC
:102C80000004005880B483B000AF78600B467B80AE
:102C900013467B707B78002B03D07A887B689A611F
:102CA00003E07B881A047B689A6100BF0C37BD463D
:102CB0005DF8047B704780B485B000AF78600B4648
:102CC0007B807B685B69FB607A88FB6813401A0431
:102CD000FB68D9437B880B401A437B689A6100BF2D
:102CE0001437BD465DF8047B7047000080B483B0A4
:102CF00000AF7860054B1A6804497B6813430B608A
:102D000000BF0C37BD465DF8047B70471065025864
:102D100080B584B000AFF8600B467A60FB72374B29
:102D20001B6823F001023549FB6813430B607B6885
:102D3000002B23D1FFF77EF80346032B58D12F4BEE
:102D40001B692E4A23F0010313612D4B1B692C4A8A
:102D500043F004031361BFF34F8F00BFBFF36F8FC6
:102D600000BFFB7A012B01D130BF00E020BF244B14
:102D70001B69234A23F0040313613CE07B68012BA9
:102D800023D1FFF757F80346012B33D11B4B5B6967
:102D90001A4A23F002035361194B1B69184A43F086
:102DA00004031361BFF34F8F00BFBFF36F8F00BFEA
:102DB000FB7A012B01D130BF00E020BF104B1B6913
:102DC0000F4A23F00403136115E0FFF733F80346BD
:102DD000032B06D1094B1B69084A23F00403136136
:102DE00009E0064B5B69054A23F00403536102E0E6
:102DF00000BF00E000BF1037BD4680BD004802584C
:102E000000ED00E080B500AFFFF714F80346032B98
:102E100001D120BF01E040BF20BF00BF80BD000046
:102E200080B489B000AFB34B1B6903F03803182B93
:102E300000F2558101A252F823F000BFA12E100824
:102E4000DF301008DF301008DF301008DF301008E6
:102E5000DF301008DF301008DF301008C72E1008F0
:102E6000DF301008DF301008DF301008DF301008C6
:102E7000DF301008DF301008DF301008CD2E1008CA
:102E8000DF301008DF301008DF301008DF301008A6
:102E9000DF301008DF301008DF301008D32E1008A4
:102EA000944B1B6803F02003002B09D0914B1B6847
:102EB000DB0803F00303904A22FA03F3BB6111E13C
:102EC0008D4BBB610EE18D4BBB610BE18C4BBB614C
:102ED00008E1884B9B6A03F003037B61854B9B6A87
:102EE0001B0903F03F033B61824BDB6A03F00103E4
:102EF000FB60804B5B6BDB08C3F30C03FA6802FBDF
:102F000003F307EE903AF8EE677AC7ED027A3B6971
:102F1000002B00F0E1807B69022B00F083807B694D
:102F2000022B00F2A1807B69002B03D07B69012B6F
:102F300056D099E06F4B1B6803F02003002B2DD077
:102F40006C4B1B68DB0803F003036B4A22FA03F3A4
:102F50007B607B6807EE903AF8EE676A3B6907EEA4
:102F6000903AF8EE677A86EEA77A624B1B6BC3F352
:102F7000080307EE903AF8EE676A97ED026ADFED14
:102F8000615AC6EE257A76EEA77AF7EE006A77EEFA
:102F9000A67A67EE277AC7ED077A87E03B6907EEE6
:102FA000903AF8EE677ADFED586A86EEA77A514BD1
:102FB0001B6BC3F3080307EE903AF8EE676A97EDD0
:102FC000026ADFED505AC6EE257A76EEA77AF7EE62
:102FD000006A77EEA67A67EE277AC7ED077A65E092
:102FE0003B6907EE903AF8EE677ADFED486A86EEC5
:102FF000A77A404B1B6BC3F3080307EE903AF8EE39
:10300000676A97ED026ADFED3F5AC6EE257A76EEE3
:10301000A77AF7EE006A77EEA67A67EE277AC7ED11
:10302000077A43E03B6907EE903AF8EE677ADFED06
:10303000386A86EEA77A2F4B1B6BC3F3080307EEA3
:10304000903AF8EE676A97ED026ADFED2E5AC6EE07
:10305000257A76EEA77AF7EE006A77EEA67A67EE23
:10306000277AC7ED077A21E03B6907EE903AF8EE40
:10307000677ADFED266A86EEA77A1E4B1B6BC3F3D9
:10308000080307EE903AF8EE676A97ED026ADFED03
:103090001D5AC6EE257A76EEA77AF7EE006A77EE2D
:1030A000A67A67EE277AC7ED077A00BF114B1B6B34
:1030B0005B0A03F07F0301333B603B6807EE903A05
:1030C000B8EE677AD7ED076AC6EE877AFCEEE77A44
:1030D00017EE903ABB6105E00023BB6102E0074BAD
:1030E000BB6100BFBB6918462437BD465DF8047B51
:1030F000704700BF004402580090D00300093D0013
:1031000040787D01000000460024744C0024744A7D
:1031100020BCBE4B80B582B000AFFFF781FE0246F7
:10312000114B9B691B0A03F00F031049CB5C03F0A2
:103130001F0322FA03F37B600B4B9B6903F00F0321
:103140000A4AD35C03F01F037A6822FA03F3084AA1
:103150001360074B1B68074A1360054B1B68184632
:103160000837BD4680BD00BF0044025884A612083F
:10317000080000100400001080B500AFFFF7CAFF80
:103180000246064BDB691B0903F007030449CB5CCD
:1031900003F01F0322FA03F3184680BD00440258CF
:1031A00084A6120880B500AFFFF7B4FF0246064BB5
:1031B000DB691B0A03F007030449CB5C03F01F0320
:1031C00022FA03F3184680BD0044025884A6120870
:1031D00080B483B000AF786039607B683F221A60AA
:1031E0001A4B1B6903F007027B685A60174B9B69F7
:1031F00003F470627B689A60144B9B6903F00F02C2
:103200007B68DA60114B9B6903F070027B681A617E
:103210000E4BDB6903F070027B685A610B4BDB6974
:1032200003F4E0627B689A61084B1B6A03F070024A
:103230007B68DA61064B1B6803F00F023B681A607B
:1032400000BF0C37BD465DF8047B70470044025850
:10325000002000522DE9B04FCAB000AFC7F81401EA
:10326000002387F82731002387F82631D7F8143157
:10327000D3E9002302F00064002554EA050349D095
:10328000D7F814319B6EB3F5401F2FD0B3F5401F14
:1032900028D8B3F5001F1AD0B3F5001F22D8002B91
:1032A00003D0B3F5801F07D01CE0B84BDB6AB74AE8
:1032B00043F40033D3621AE0D7F814310833022103
:1032C000184601F08FFC034687F827310FE0D7F846
:1032D000143128330221184601F036FD034687F8E1
:1032E000273104E0012387F8273100E000BF97F879
:1032F0002731002B0AD1A54B1B6D23F44011D7F8C1
:1033000014319B6EA14A0B43136503E097F82731F4
:1033100087F82631D7F81431D3E9002302F48078F6
:103320004FF0000958EA090347D0D7F814319B6DD4
:10333000042B2AD801A252F823F000BF5133100801
:103340005F33100875331008933310089333100857
:103350008E4BDB6A8D4A43F40033D3621AE0D7F810
:10336000143108330021184601F03CFC034687F86D
:1033700027310FE0D7F8143128330021184601F027
:10338000E3FC034687F8273104E0012387F827315F
:1033900000E000BF97F82731002B0AD17B4B1B6D53
:1033A00023F00701D7F814319B6D784A0B4313655E
:1033B00003E097F8273187F82631D7F81431D3E99D
:1033C000002302F4007A4FF0000B5AEA0B034CD0B2
:1033D000D7F81431DB6DB3F5807F30D0B3F5807F43
:1033E00029D8C02B2DD0C02B25D8802B18D0802BCE
:1033F00021D8002B02D0402B07D01CE0634BDB6AA6
:10340000624A43F40033D3621CE0D7F81431083326
:103410000021184601F0E6FB034687F8273111E04A
:10342000D7F8143128330021184601F08DFC0346EB
:1034300087F8273106E0012387F8273102E000BF33
:1034400000E000BF97F82731002B0AD14F4B1B6DCE
:1034500023F4E071D7F81431DB6D4C4A0B4313654C
:1034600003E097F8273187F82631D7F81431D3E9EC
:10347000002302F48063C7F808310023C7F80C3139
:10348000D7E942120B46134353D0D7F81431D3F87F
:10349000A830B3F5000F35D0B3F5000F2ED8B3F533
:1034A000C00F31D0B3F5C00F28D8B3F5800F1AD0B4
:1034B000B3F5800F22D8002B03D0B3F5001F07D03F
:1034C0001CE0324BDB6A314A43F40033D3621CE028
:1034D000D7F8143108330021184601F083FB034666
:1034E00087F8273111E0D7F8143128330021184626
:1034F00001F02AFC034687F8273106E0012387F80C
:10350000273102E000BF00E000BF97F82731002B11
:103510000BD11E4B9B6D23F46001D7F81431D3F807
:10352000A8301A4A0B43936503E097F8273187F8D0
:103530002631D7F81431D3E9002302F40063C7F829
:1035400000310023C7F80431D7E940120B4613437A
:1035500056D0D7F81431D3F8AC30B3F1806F38D0EF
:10356000B3F1806F31D8B3F1407F34D0B3F1407FF5
:103570002BD8B3F1007F1DD0B3F1007F25D8002BED
:1035800006D0B3F1807F0AD01FE000BF004402588C
:10359000A24BDB6AA14A43F40033D3621CE0D7F8A4
:1035A000143108330021184601F01CFB034687F84C
:1035B000273111E0D7F8143128330021184601F0E3
:1035C000C3FB034687F8273106E0012387F827313C
:1035D00002E000BF00E000BF97F82731002B0BD1BD
:1035E0008E4B9B6D23F0E061D7F81431D3F8AC30EB
:1035F0008A4A0B43936503E097F8273187F8263111
:10360000D7F81431D3E9002302F00073C7F8F8307B
:103610000023C7F8FC30D7E93E120B4613433AD0DB
:10362000D7F81431DB6C302B1FD0302B19D8202B5E
:103630000CD0202B15D8002B19D0102B11D1774B83
:10364000DB6A764A43F40033D36211E0D7F81431D1
:1036500008330221184601F0C5FA034687F82731DE
:1036600006E0012387F8273102E000BF00E000BF39
:1036700097F82731002B0AD1684BDB6C23F030011F
:10368000D7F81431DB6C654A0B43D36403E097F839
:10369000273187F82631D7F81431D3E9002302F413
:1036A0008053C7F8F0300023C7F8F430D7E93C1254
:1036B0000B46134351D0D7F814311B6EB3F5804F2E
:1036C00035D0B3F5804F2ED8B3F5405F31D0B3F588
:1036D000405F28D8B3F5005F1AD0B3F5005F22D859
:1036E000002B03D0B3F5805F07D01CE04B4BDB6AA7
:1036F0004A4A43F40033D3621CE0D7F8143108334C
:103700000021184601F06EFA034687F8273111E0D0
:10371000D7F8143128330021184601F015FB034671
:1037200087F8273106E0012387F8273102E000BF40
:1037300000E000BF97F82731002B0AD1374B1B6DF3
:1037400023F4E041D7F814311B6E344A0B43136560
:1037500003E097F8273187F82631D7F81431D3E9F9
:10376000002302F40053C7F8E8300023C7F8EC3018
:10377000D7E93A120B46134356D0D7F814315B6E93
:10378000B3F5A02F33D0B3F5A02F2CD8B3F5802FED
:103790002FD0B3F5802F26D8B3F5403F2BD0B3F50B
:1037A000403F20D8B3F5003F12D0B3F5003F1AD800
:1037B000002B22D0B3F5803F15D1D7F81431083350
:1037C0000121184601F00EFA034687F8273115E06B
:1037D000D7F8143128330121184601F0B5FA034611
:1037E00087F827310AE0012387F8273106E000BF78
:1037F00004E000BF02E000BF00E000BF97F82731FF
:10380000002B0DD1054B1B6D23F4E021D7F81431AB
:103810005B6E024A0B43136506E000BF004402588A
:1038200097F8273187F82631D7F81431D3E90023E8
:1038300002F48043C7F8E0300023C7F8E430D7E94A
:1038400038120B46134355D0D7F81431D3F8B030A3
:10385000B3F1A04F33D0B3F1A04F2CD8B3F1804FC8
:103860002FD0B3F1804F26D8B3F1405F2BD0B3F106
:10387000405F20D8B3F1005F12D0B3F1005F1AD8D7
:10388000002B22D0B3F1805F15D1D7F81431083363
:103890000121184601F0A6F9034687F8273115E003
:1038A000D7F8143128330121184601F04DFA0346A8
:1038B00087F827310AE0012387F8273106E000BFA7
:1038C00004E000BF02E000BF00E000BF97F827312E
:1038D000002B0BD1A44B9B6D23F0E041D7F81431A2
:1038E000D3F8B030A04A0B43936503E097F8273133
:1038F00087F82631D7F81431D3E9002302F40043C6
:10390000C7F8D8300023C7F8DC30D7E936120B46A9
:10391000134337D0D7F814311B6FB3F1005F0ED0CB
:10392000B3F1005F16D8002B18D0B3F1805F11D12E
:103930008D4BDB6A8C4A43F40033D3620FE0D7F837
:10394000143108330121184601F04CF9034687F879
:10395000273104E0012387F8273100E000BF97F802
:103960002731002B0AD1804B1B6D23F04051D7F833
:1039700014311B6F7C4A0B43136503E097F8273122
:1039800087F82631D7F81431D3E9002302F0807389
:10399000C7F8D0300023C7F8D430D7E934120B462B
:1039A000134339D0D7F814319B6C032B1CD801A2D8
:1039B00052F823F0F1391008C5391008D33910082E
:1039C000F1391008684BDB6A674A43F40033D3626D
:1039D0000FE0D7F8143108330221184601F002F93C
:1039E000034687F8273104E0012387F8273100E0F8
:1039F00000BF97F82731002B0AD15B4BDB6C23F01B
:103A00000301D7F814319B6C574A0B43D36403E08E
:103A100097F8273187F82631D7F81431D3E90023F6
:103A200002F48003C7F8C8300023C7F8CC30D7E9C8
:103A300032120B46134300F09F804C4B1B684B4ADD
:103A400043F480731360FEF709F9C7F820010BE017
:103A5000FEF704F90246D7F82031D31A642B03D9B4
:103A6000032387F8273105E0404B1B6803F480737C
:103A7000002BEDD097F82731002B79D13A4B1A6FF4
:103A8000D7F81431D3F8B430534003F44073002B0B
:103A900015D0354B1B6F23F44073C7F81C31324BE4
:103AA0001B6F314A43F4803313672F4B1B6F2E4A31
:103AB00023F4803313672C4AD7F81C311367D7F8E7
:103AC0001431D3F8B430B3F5807F18D1FEF7C6F8BF
:103AD000C7F820010DE0FEF7C1F80246D7F8203103
:103AE000D21A41F288339A4203D9032387F8273147
:103AF00005E01D4B1B6F03F00203002BEBD097F882
:103B00002731002B2BD1D7F81431D3F8B43003F47C
:103B10004073B3F5407F10D1134B1B6923F47C51E4
:103B2000D7F81431D3F8B4301B0923F07F4323F0C6
:103B300030030D4A0B43136105E00B4B1B690A4A26
:103B400023F47C531361084B196FD7F81431D3F861
:103B5000B430C3F30B03044A0B4313670CE097F82C
:103B6000273187F8263107E0004402580048025800
:103B700097F8273187F82631D7F81431D3E9002395
:103B800002F00103C7F8C0300023C7F8C430D7E9FA
:103B900030120B46134300F08980D7F81431DB6FE5
:103BA000282B6BD801A252F823F000BF853C1008E7
:103BB0007D3C10087D3C10087D3C10087D3C1008C1
:103BC0007D3C10087D3C10087D3C1008513C1008DD
:103BD0007D3C10087D3C10087D3C10087D3C1008A1
:103BE0007D3C10087D3C10087D3C1008673C1008A7
:103BF0007D3C10087D3C10087D3C10087D3C100881
:103C00007D3C10087D3C10087D3C1008853C100868
:103C10007D3C10087D3C10087D3C10087D3C100860
:103C20007D3C10087D3C10087D3C1008853C100848
:103C30007D3C10087D3C10087D3C10087D3C100840
:103C40007D3C10087D3C10087D3C1008853C100828
:103C5000D7F8143108330121184600F0C3FF03469A
:103C600087F827310FE0D7F814312833012118469F
:103C700001F06AF8034687F8273104E0012387F84A
:103C8000273100E000BF97F82731002B0AD1BF4B46
:103C90005B6D23F03801D7F81431DB6FBB4A0B435F
:103CA000536503E097F8273187F82631D7F81431A8
:103CB000D3E9002302F00203C7F8B8300023C7F8A5
:103CC000BC30D7E92E120B46134341D0D7F814313C
:103CD0009B6F052B24D801A252F823F0293D100830
:103CE000F53C10080B3D1008293D1008293D10082F
:103CF000293D1008D7F8143108330121184600F087
:103D000071FF034687F827310FE0D7F814312833C5
:103D10000121184601F018F8034687F8273104E01E
:103D2000012387F8273100E000BF97F82731002BE7
:103D30000AD1964B5B6D23F00701D7F814319B6FC6
:103D4000924A0B43536503E097F8273187F82631F1
:103D5000D7F81431D3E9002302F00403C7F8B030D8
:103D60000023C7F8B430D7E92C120B46134344D0D4
:103D7000D7F81431D3F89430052B25D801A252F886
:103D800023F000BFD13D10089D3D1008B33D100841
:103D9000D13D1008D13D1008D13D1008D7F814319D
:103DA00008330121184600F01DFF034687F827312C
:103DB0000FE0D7F8143128330121184600F0C4FF72
:103DC000034687F8273104E0012387F8273100E014
:103DD00000BF97F82731002B0BD16C4B9B6D23F064
:103DE0000701D7F81431D3F89430684A0B43936530
:103DF00003E097F8273187F82631D7F81431D3E953
:103E0000002302F02003C7F8A8300023C7F8AC3025
:103E1000D7E92A120B46134355D0D7F81431D3F8FB
:103E20009030B3F1A04F33D0B3F1A04F2CD8B3F101
:103E3000804F2FD0B3F1804F26D8B3F1405F2BD005
:103E4000B3F1405F20D8B3F1005F12D0B3F1005F4F
:103E50001AD8002B22D0B3F1805F15D1D7F81431D6
:103E600008330021184600F0BDFE034687F82731CD
:103E700015E0D7F8143128330221184600F064FF0A
:103E8000034687F827310AE0012387F8273106E047
:103E900000BF04E000BF02E000BF00E000BF97F8F1
:103EA0002731002B0BD1394B5B6D23F0E041D7F864
:103EB0001431D3F89030354A0B43536503E097F83B
:103EC000273187F82631D7F81431D3E9002302F0DF
:103ED0004003C7F8A0300023C7F8A430D7E9281260
:103EE0000B46134358D0D7F81431D3F89C30B3F5B0
:103EF000A05F33D0B3F5A05F2CD8B3F5805F2FD08F
:103F0000B3F5805F26D8B3F5406F2BD0B3F5406F83
:103F100020D8B3F5006F12D0B3F5006F1AD8002B7C
:103F200022D0B3F5806F15D1D7F8143108330021B2
:103F3000184600F057FE034687F8273115E0D7F8FA
:103F4000143128330221184600F0FEFE034687F89C
:103F500027310AE0012387F8273106E000BF04E09B
:103F600000BF02E000BF00E000BF97F82731002B40
:103F70000ED1064B9B6D23F4E051D7F81431D3F8E2
:103F80009C30024A0B43936506E000BF0044025890
:103F900097F8273187F82631D7F81431D3E9002371
:103FA00002F08003C7F898300023C7F89C30D7E9A7
:103FB00026120B46134355D0D7F81431D3F8A0304E
:103FC000B3F5204F33D0B3F5204F2CD8B3F5004FC5
:103FD0002FD0B3F5004F26D8B3F5C04F2BD0B3F593
:103FE000C04F20D8B3F5804F12D0B3F5804F1AD808
:103FF000002B22D0B3F5005F15D1D7F81431083368
:104000000021184600F0EEFD034687F8273115E041
:10401000D7F8143128330221184600F095FE0346E4
:1040200087F827310AE0012387F8273106E000BF2F
:1040300004E000BF02E000BF00E000BF97F82731B6
:10404000002B0BD1A14B9B6D23F46041D7F81431A9
:10405000D3F8A0309D4A0B43936503E097F82731CE
:1040600087F82631D7F81431D3E9002302F008038A
:10407000C7F890300023C7F89430D7E924120B46D4
:1040800013431ED0D7F81431D3F88430B3F5805FD2
:104090000CD1D7F8143128330221184600F054FE11
:1040A0000346002B02D0012387F82631874B5B6D36
:1040B00023F44051D7F81431D3F88430834A0B43AA
:1040C0005365D7F81431D3E9002302F01003C7F881
:1040D00088300023C7F88C30D7E922120B461343EF
:1040E0001ED0D7F81431D3F89830B3F5807F0CD1B7
:1040F000D7F8143128330221184600F025FE034674
:10410000002B02D0012387F82631704B9B6D23F4DE
:104110004071D7F81431D3F898306C4A0B4393654B
:10412000D7F81431D3E9002302F40023C7F8803014
:104130000023C7F88430D7E920120B4613433ED042
:10414000D7F81431D3F8A430B3F5003F22D0B3F53B
:10415000003F1BD8002B03D0B3F5803F0BD015E0F8
:10416000D7F8143108330021184600F03BFD034610
:1041700087F827310FE0D7F8143128330221184689
:1041800000F0E2FD034687F8273104E0012387F8B9
:10419000273100E000BF97F82731002B0BD14B4BA4
:1041A0009B6D23F44031D7F81431D3F8A430474A3B
:1041B0000B43936503E097F8273187F82631D7F84A
:1041C0001431D3E9002302F48023BB670023FB678B
:1041D000D7E91E120B4613433BD0D7F81431D3F85E
:1041E0008830B3F5401F1FD0B3F5401F18D8B3F582
:1041F000801F03D0B3F5001F07D011E0334BDB6AFB
:10420000324A43F40033D3620FE0D7F81431283335
:104210000121184600F098FD034687F8273104E095
:10422000012387F8273100E000BF97F82731002BE2
:104230000BD1264B5B6D23F44011D7F81431D3F822
:104240008830224A0B43536503E097F8273187F8FB
:104250002631D7F81431D3E9002302F480333B67C9
:1042600000237B67D7E91C120B46134334D0D7F8E1
:1042700014311B6D002B03D0B3F5803F07D011E044
:10428000124BDB6A114A43F40033D3620EE0D7F8D5
:10429000143108330221184600F0A4FC034687F8C5
:1042A000273103E0012387F8273100BF97F8273132
:1042B000002B0DD1054BDB6C23F48031D7F8143182
:1042C0001B6D024A0B43D36406E000BF0044025852
:1042D00097F8273187F82631D7F81431D3E900232E
:1042E00002F00053BB660023FB66D7E91A120B46A7
:1042F00013430CD0D7F8143128330221184600F0AC
:1043000023FD0346002B02D0012387F82631D7F87E
:104310001431D3E9002302F400333B6600237B66AB
:10432000D7E918120B46134338D0D7F81431D3F815
:104330008030B3F5407F18D0B3F5407F11D8B3F586
:10434000007F14D0B3F5007F0BD8002B11D0B3F54C
:10435000807F06D1C34BDB6AC24A43F40033D36289
:1043600008E0012387F8273104E000BF02E000BF26
:1043700000E000BF97F82731002B0BD1B94B5B6DE4
:1043800023F44071D7F81431D3F88030B54A0B4389
:10439000536503E097F8273187F82631D7F81431B1
:1043A000D3E9002302F48013BB650023FB65D7E942
:1043B00016120B46134309D0AA4B1B6D23F0004184
:1043C000D7F814315B6FA74A0B431365D7F8143144
:1043D000D3E9002302F080533B6500237B65D7E9D6
:1043E00014120B4613430AD09E4B1B6923F48041E1
:1043F000D7F81431D3F8B8309A4A0B431361D7F881
:104400001431D3E9002302F40013BB640023FB64DE
:10441000D7E912120B46134309D0924B1B6D23F0C0
:104420008071D7F81431DB6E8E4A0B431365D7F8D1
:104430001431D3E9002302F080433B6400237B6402
:10444000D7E910120B4613430ED0864B1B69854AE1
:1044500023F400431361834B1969D7F81431D3F85F
:10446000BC30804A0B431361D7F81431D3E90023E1
:1044700002F00043BB630023FB63D7E90E120B4637
:10448000134309D0774BDB6C23F04051D7F814313C
:104490005B6D744A0B43D364D7F81431D3E900231E
:1044A00002F400033B6300237B63D7E90C120B4645
:1044B00013430AD06B4B5B6D23F44001D7F81431E2
:1044C000D3F88C30674A0B435365D7F81431D3E9DE
:1044D00000230021B96203F00103FB62D7E90A124D
:1044E0000B46134311D0D7F8143108330021184676
:1044F00000F078FB034687F8273197F82731002B27
:1045000003D097F8273187F82631D7F81431D3E94B
:1045100000230021396203F002037B62D7E908120D
:104520000B46134311D0D7F8143108330121184634
:1045300000F058FB034687F8273197F82731002B06
:1045400003D097F8273187F82631D7F81431D3E90B
:1045500000230021B96103F00403FB61D7E90612CF
:104560000B46134311D0D7F81431083302211846F3
:1045700000F038FB034687F8273197F82731002BE6
:1045800003D097F8273187F82631D7F81431D3E9CB
:1045900000230021396103F008037B61D7E904128D
:1045A0000B46134311D0D7F8143128330021184695
:1045B00000F0CAFB034687F8273197F82731002B14
:1045C00003D097F8273187F82631D7F81431D3E98B
:1045D00000230021B96003F01003FB60D7E9021249
:1045E0000B46134311D0D7F8143128330121184654
:1045F00000F0AAFB034687F8273197F82731002BF4
:1046000003D097F8273187F82631D7F81431D3E94A
:1046100000230021396003F020037B60D7E90012FA
:104620000B46134311D0D7F8143128330221184612
:1046300000F08AFB034687F8273197F82731002BD3
:1046400003D097F8273187F8263197F82631002BC9
:1046500001D1002300E00123184607F59477BD46F9
:10466000BDE8B08F0044025880B500AFFEF752FDA0
:104670000246064B1B6A1B0903F007030449CB5C87
:1046800003F01F0322FA03F3184680BD00440258CA
:1046900084A6120880B489B000AF7860A14B9B6AF1
:1046A00003F00303BB619F4B9B6A1B0B03F03F03AB
:1046B0007B619C4BDB6A1B0903F001033B61994B57
:1046C000DB6BDB08C3F30C033A6902FB03F307EE71
:1046D000903AF8EE677AC7ED037A7B69002B00F019
:1046E0001181BB69022B00F08380BB69022B00F2B1
:1046F000A180BB69002B03D0BB69012B56D099E088
:10470000884B1B6803F02003002B2DD0854B1B68C2
:10471000DB0803F00303844A22FA03F3BB60BB689F
:1047200007EE903AF8EE676A7B6907EE903AF8EE8A
:10473000677A86EEA77A7B4B9B6BC3F3080307EE81
:10474000903AF8EE676A97ED036ADFED785AC6EEA5
:10475000257A76EEA77AF7EE006A77EEA67A67EE0C
:10476000277AC7ED077A87E07B6907EE903AF8EE83
:10477000677ADFED6F6A86EEA77A6A4B9B6BC3F3AD
:10478000080307EE903AF8EE676A97ED036ADFEDEB
:10479000675AC6EE257A76EEA77AF7EE006A77EECC
:1047A000A67A67EE277AC7ED077A65E07B6907EEA0
:1047B000903AF8EE677ADFED5F6A86EEA77A594B9A
:1047C0009B6BC3F3080307EE903AF8EE676A97ED28
:1047D000036ADFED565AC6EE257A76EEA77AF7EE33
:1047E000006A77EEA67A67EE277AC7ED077A43E08C
:1047F0007B6907EE903AF8EE677ADFED4F6A86EE56
:10480000A77A484B9B6BC3F3080307EE903AF8EE88
:10481000676A97ED036ADFED455AC6EE257A76EEB4
:10482000A77AF7EE006A77EEA67A67EE277AC7EDE9
:10483000077A21E07B6907EE903AF8EE677ADFEDC0
:104840003D6A86EEA77A374B9B6BC3F3080307EEEE
:10485000903AF8EE676A97ED036ADFED345AC6EED8
:10486000257A76EEA77AF7EE006A77EEA67A67EEFB
:10487000277AC7ED077A00BF2A4B9B6B5B0A03F0D0
:104880007F0307EE903AF8EE677AB7EE007A37EEDC
:10489000877AD7ED076AC6EE877AFCEEE77A17EEDD
:1048A000902A7B681A601F4B9B6B1B0C03F07F03E5
:1048B00007EE903AF8EE677AB7EE007A37EE877A2D
:1048C000D7ED076AC6EE877AFCEEE77A17EE902AF4
:1048D0007B685A60134B9B6B1B0E03F07F0307EE44
:1048E000903AF8EE677AB7EE007A37EE877AD7ED2E
:1048F000076AC6EE877AFCEEE77A17EE902A7B68A5
:104900009A6008E07B6800221A607B6800225A6087
:104910007B6800229A6000BF2437BD465DF8047BA7
:10492000704700BF004402580090D00300000046CA
:104930000024744C0024744A20BCBE4B80B489B05F
:1049400000AF7860A14B9B6A03F00303BB619F4BF0
:104950009B6A1B0D03F03F037B619C4BDB6A1B0AC8
:1049600003F001033B61994B5B6CDB08C3F30C0361
:104970003A6902FB03F307EE903AF8EE677AC7ED67
:10498000037A7B69002B00F01181BB69022B00F0D8
:104990008380BB69022B00F2A180BB69002B03D08E
:1049A000BB69012B56D099E0884B1B6803F02003AC
:1049B000002B2DD0854B1B68DB0803F00303844AD2
:1049C00022FA03F3BB60BB6807EE903AF8EE676A21
:1049D0007B6907EE903AF8EE677A86EEA77A7B4B12
:1049E0001B6CC3F3080307EE903AF8EE676A97ED85
:1049F000036ADFED785AC6EE257A76EEA77AF7EEEF
:104A0000006A77EEA67A67EE277AC7ED077A87E025
:104A10007B6907EE903AF8EE677ADFED6F6A86EE13
:104A2000A77A6A4B1B6CC3F3080307EE903AF8EEC3
:104A3000676A97ED036ADFED675AC6EE257A76EE70
:104A4000A77AF7EE006A77EEA67A67EE277AC7EDC7
:104A5000077A65E07B6907EE903AF8EE677ADFED5A
:104A60005F6A86EEA77A594B1B6CC3F3080307EE07
:104A7000903AF8EE676A97ED036ADFED565AC6EE94
:104A8000257A76EEA77AF7EE006A77EEA67A67EED9
:104A9000277AC7ED077A43E07B6907EE903AF8EE94
:104AA000677ADFED4F6A86EEA77A484B1B6CC3F33B
:104AB000080307EE903AF8EE676A97ED036ADFEDB8
:104AC000455AC6EE257A76EEA77AF7EE006A77EEBB
:104AD000A67A67EE277AC7ED077A21E07B6907EEB1
:104AE000903AF8EE677ADFED3D6A86EEA77A374BAB
:104AF0001B6CC3F3080307EE903AF8EE676A97ED74
:104B0000036ADFED345AC6EE257A76EEA77AF7EE21
:104B1000006A77EEA67A67EE277AC7ED077A00BFBC
:104B20002A4B1B6C5B0A03F07F0307EE903AF8EE0A
:104B3000677AB7EE007A37EE877AD7ED076AC6EE66
:104B4000877AFCEEE77A17EE902A7B681A601F4B93
:104B50001B6C1B0C03F07F0307EE903AF8EE677AAC
:104B6000B7EE007A37EE877AD7ED076AC6EE877A16
:104B7000FCEEE77A17EE902A7B685A60134B1B6CA9
:104B80001B0E03F07F0307EE903AF8EE677AB7EE5C
:104B9000007A37EE877AD7ED076AC6EE877AFCEEA1
:104BA000E77A17EE902A7B689A6008E07B6800221B
:104BB0001A607B6800225A607B6800229A6000BFFE
:104BC0002437BD465DF8047B704700BF004402589F
:104BD0000090D003000000460024744C0024744A66
:104BE00020BCBE4B80B584B000AF78603960002334
:104BF000FB73544B9B6A03F00303032B01D1012386
:104C00009BE0504B1B684F4A23F080631360FDF715
:104C100025F8B86008E0FDF721F80246BB68D31A12
:104C2000022B01D9032388E0464B1B6803F0006385
:104C3000002BF0D1434B9B6A23F47C327B681B68CA
:104C40001B03404913438B627B685B68013BC3F3E2
:104C500008027B689B68013B5B029BB21A437B683E
:104C6000DB68013B1B0403F4FE031A437B681B69EA
:104C7000013B1B0603F0FE43324913438B63314B68
:104C8000DB6A23F0C0027B685B692E491343CB6269
:104C90002C4BDB6A23F020027B689B692949134374
:104CA000CB62284BDB6A274A23F01003D362254BE3
:104CB000DB6B23F47F4323F0F8037A68D269D200D8
:104CC00020491343CB631F4BDB6A1E4A43F010039A
:104CD000D3623B68002B06D11A4BDB6A194A43F4B6
:104CE0000023D3620FE03B68012B06D1154BDB6A32
:104CF000144A43F48013D36205E0124BDB6A114A75
:104D000043F40013D3620F4B1B680E4A43F08063D9
:104D10001360FCF7A3FFB86008E0FCF79FFF0246B2
:104D2000BB68D31A022B01D9032306E0054B1B688D
:104D300003F00063002BF0D0FB7B18461037BD4614
:104D400080BD00BF0044025880B584B000AF7860D9
:104D500039600023FB73544B9B6A03F00303032B5E
:104D600001D101239BE0504B1B684F4A23F0805335
:104D70001360FCF773FFB86008E0FCF76FFF0246B2
:104D8000BB68D31A022B01D9032388E0464B1B686A
:104D900003F00053002BF0D1434B9B6A23F07C724D
:104DA0007B681B681B05404913438B627B685B680B
:104DB000013BC3F308027B689B68013B5B029BB22B
:104DC0001A437B68DB68013B1B0403F4FE031A43B0
:104DD0007B681B69013B1B0603F0FE43324913430A
:104DE0000B64314BDB6A23F440627B685B692E49BC
:104DF0001343CB622C4BDB6A23F400727B689B6904
:104E000029491343CB62284BDB6A274A23F480737A
:104E1000D362254B5B6C23F47F4323F0F8037A685D
:104E2000D269D200204913434B641F4BDB6A1E4AF0
:104E300043F48073D3623B68002B06D11A4BDB6AC4
:104E4000194A43F48003D3620FE03B68012B06D17B
:104E5000154BDB6A144A43F40003D36205E0124B9E
:104E6000DB6A114A43F08073D3620F4B1B680E4A12
:104E700043F080531360FCF7F1FEB86008E0FCF7E4
:104E8000EDFE0246BB68D31A022B01D9032306E0CC
:104E9000054B1B6803F00053002BF0D0FB7B18463A
:104EA0001037BD4680BD00BF0044025880B582B0B7
:104EB00000AF78607B68002B01D1012349E07B685B
:104EC00093F83D30DBB2002B06D17B68002283F8DB
:104ED0003C20786800F041F87B68022283F83D208E
:104EE0007B681A687B6804331946104600F000FAA4
:104EF0007B68012283F848207B68012283F83E20EA
:104F00007B68012283F83F207B68012283F84020E0
:104F10007B68012283F841207B68012283F84220CC
:104F20007B68012283F843207B68012283F84420B8
:104F30007B68012283F845207B68012283F84620A4
:104F40007B68012283F847207B68012283F83D209B
:104F5000002318460837BD4680BD80B483B000AF3B
:104F6000786000BF0C37BD465DF8047B70470000D9
:104F700080B485B000AF78607B6893F83D30DBB2D9
:104F8000012B01D0012354E07B68022283F83D20ED
:104F90007B681B68DA687B681B6842F00102DA6094
:104FA0007B681B68264A934222D07B681B68B3F15A
:104FB000804F1DD07B681B68224A934218D07B68C3
:104FC0001B68214A934213D07B681B681F4A934297
:104FD0000ED07B681B681E4A934209D07B681B6811
:104FE0001C4A934204D07B681B681B4A934215D12C
:104FF0007B681B689A68194B1340FB60FB68062BA3
:1050000015D0FB68B3F5803F11D07B681B681A6828
:105010007B681B6842F001021A6008E07B681B682D
:105020001A687B681B6842F001021A6000E000BF4A
:10503000002318461437BD465DF8047B704700BF57
:10504000000001400004004000080040000C004047
:10505000000401400018004000400140070001002A
:1050600080B582B000AF78607B681B681B6903F075
:105070000203022B22D17B681B68DB6803F002036A
:10508000022B1BD17B681B686FF002021A617B68E0
:1050900001221A777B681B689B6903F00303002BCE
:1050A00003D0786800F005F905E0786800F0F7F8BB
:1050B000786800F008F97B6800221A777B681B6823
:1050C0001B6903F00403042B22D17B681B68DB6897
:1050D00003F00403042B1BD17B681B686FF00402F0
:1050E0001A617B6802221A777B681B689B6903F44C
:1050F0004073002B03D0786800F0DBF805E0786897
:1051000000F0CDF8786800F0DEF87B6800221A77AE
:105110007B681B681B6903F00803082B22D17B689E
:105120001B68DB6803F00803082B1BD17B681B6836
:105130006FF008021A617B6804221A777B681B688B
:10514000DB6903F00303002B03D0786800F0B1F8AB
:1051500005E0786800F0A3F8786800F0B4F87B68A0
:1051600000221A777B681B681B6903F01003102B61
:1051700022D17B681B68DB6803F01003102B1BD166
:105180007B681B686FF010021A617B6808221A772F
:105190007B681B68DB6903F44073002B03D07868DD
:1051A00000F087F805E0786800F079F8786800F09A
:1051B0008AF87B6800221A777B681B681B6903F0FA
:1051C0000103012B0ED17B681B68DB6803F0010330
:1051D000012B07D17B681B686FF001021A617868A8
:1051E000FCF7F0F97B681B681B6903F08003802BD8
:1051F0000ED17B681B68DB6803F08003802B07D12E
:105200007B681B686FF080021A61786800F014F9FF
:105210007B681B681B6903F48073B3F5807F0ED134
:105220007B681B68DB6803F08003802B07D17B68F9
:105230001B686FF480721A61786800F007F97B6868
:105240001B681B6903F04003402B0ED17B681B6871
:10525000DB6803F04003402B07D17B681B686FF0CD
:1052600040021A61786800F038F87B681B681B6997
:1052700003F02003202B0ED17B681B68DB6803F052
:105280002003202B07D17B681B686FF020021A6176
:10529000786800F0C7F800BF0837BD4680BD80B40D
:1052A00083B000AF786000BF0C37BD465DF8047B6B
:1052B000704780B483B000AF786000BF0C37BD4644
:1052C0005DF8047B704780B483B000AF786000BFA6
:1052D0000C37BD465DF8047B704780B483B000AFE7
:1052E000786000BF0C37BD465DF8047B7047000056
:1052F00080B485B000AF786039607B681B68FB6064
:105300007B68404A934213D07B68B3F1804F0FD043
:105310007B683D4A93420BD07B683C4A934207D05E
:105320007B683B4A934203D07B683A4A934208D158
:10533000FB6823F07003FB603B685B68FA6813430B
:10534000FB607B682F4A93421FD07B68B3F1804F8C
:105350001BD07B682C4A934217D07B682B4A934220
:1053600013D07B682A4A93420FD07B68294A934224
:105370000BD07B68284A934207D07B68274A934228
:1053800003D07B68264A934208D1FB6823F440731C
:10539000FB603B68DB68FA681343FB60FB6823F043
:1053A00080023B685B691343FB607B68FA681A60A4
:1053B0003B689A687B68DA623B681A687B689A6225
:1053C0007B68104A93420FD07B68124A93420BD0FD
:1053D0007B68114A934207D07B68104A934203D0FE
:1053E0007B680F4A934203D13B681A697B681A6352
:1053F0007B6801225A6100BF1437BD465DF8047B0B
:10540000704700BF00000140000400400008004059
:10541000000C0040000401400040014000440140F5
:105420000048014080B483B000AF786000BF0C3703
:10543000BD465DF8047B704780B483B000AF7860F0
:1054400000BF0C37BD465DF8047B704780B483B065
:1054500000AF786000BF0C37BD465DF8047B704735
:1054600080B582B000AF78607B68002B01D101234A
:1054700042E07B68D3F88830002B06D17B6800229D
:1054800083F884207868FCF765F97B682422C3F8E8
:1054900088207B681B681A687B681B6822F0010201
:1054A0001A60786800F006FC0346012B01D1012345
:1054B00022E07B689B6A002B02D0786801F062F9D9
:1054C0007B681B685A687B681B6822F490425A60AC
:1054D0007B681B689A687B681B6822F02A029A60C6
:1054E0007B681B681A687B681B6842F001021A60BF
:1054F000786801F0E9F9034618460837BD4680BDD3
:1055000080B5BAB000AF78607B681B68DB69C7F80C
:10551000E4307B681B681B68C7F8E0307B681B6859
:105520009B68C7F8DC30D7F8E42040F60F0313403F
:10553000C7F8D830D7F8D830002B1BD1D7F8E430D3
:1055400003F02003002B15D0D7F8E03003F0200340
:10555000002B05D1D7F8DC3003F08053002B09D0A5
:105560007B685B6F002B00F079837B685B6F7868EA
:10557000984773E3D7F8D830002B00F02381D7F891
:10558000DC208D4B1340002B06D1D7F8E0208B4B4D
:105590001340002B00F01681D7F8E43003F001032C
:1055A000002B11D0D7F8E03003F48073002B0BD020
:1055B0007B681B6801221A627B68D3F8903043F045
:1055C00001027B68C3F89020D7F8E43003F00203AF
:1055D000002B11D0D7F8DC3003F00103002B0BD0E7
:1055E0007B681B6802221A627B68D3F8903043F014
:1055F00004027B68C3F89020D7F8E43003F004037A
:10560000002B11D0D7F8DC3003F00103002B0BD0B6
:105610007B681B6804221A627B68D3F8903043F0E1
:1056200002027B68C3F89020D7F8E43003F0080347
:10563000002B17D0D7F8E03003F02003002B05D162
:10564000D7F8DC205C4B1340002B0BD07B681B6829
:1056500008221A627B68D3F8903043F008027B6816
:10566000C3F89020D7F8E43003F40063002B12D085
:10567000D7F8E03003F08063002B0CD07B681B6808
:105680004FF400621A627B68D3F8903043F0200236
:105690007B68C3F890207B68D3F89030002B00F033
:1056A000DF82D7F8E43003F02003002B13D0D7F8C3
:1056B000E03003F02003002B05D1D7F8DC3003F0F5
:1056C0008053002B07D07B685B6F002B03D07B6877
:1056D0005B6F786898477B68D3F89030C7F8D43010
:1056E0007B681B689B6803F04003402B05D0D7F80C
:1056F000D43003F02803002B54D0786801F0F5F97A
:105700007B681B689B6803F04003402B46D17B6895
:105710001B680833C7F89C30D7F89C3053E8003F2B
:10572000C7F89830D7F8983023F04003C7F8D03046
:105730007B681B680833D7F8D020C7F8A820C7F8C3
:10574000A430D7F8A410D7F8A82041E80023C7F860
:10575000A030D7F8A030002BD9D17B68D3F88030A7
:10576000002B17D07B68D3F88030154A1A657B6808
:10577000D3F880301846FCF78FFE0346002B19D073
:105780007B68D3F880301B6D7A68D2F88020104691
:1057900098470FE0786800F077FA0BE0786800F03F
:1057A00073FA07E0786800F06FFA7B680022C3F8AC
:1057B000902055E200BF53E20100001020010004D8
:1057C000B76B10087B68DB6E012B40F0E981D7F8DE
:1057D000E43003F01003002B00F0E281D7F8E03052
:1057E00003F01003002B00F0DB817B681B681022A4
:1057F0001A627B681B689B6803F04003402B40F0F3
:1058000051817B68D3F880301B68964A934268D0F8
:105810007B68D3F880301B68934A934261D07B68E1
:10582000D3F880301B68914A93425AD07B68D3F8F2
:1058300080301B688E4A934253D07B68D3F8803007
:105840001B688C4A93424CD07B68D3F880301B682D
:10585000894A934245D07B68D3F880301B68874AD9
:1058600093423ED07B68D3F880301B68844A9342D1
:1058700037D07B68D3F880301B68824A934230D09F
:105880007B68D3F880301B687F4A934229D07B68BD
:10589000D3F880301B687D4A934222D07B68D3F8CE
:1058A00080301B687A4A93421BD07B68D3F88030E3
:1058B0001B68784A934214D07B68D3F880301B6809
:1058C000754A93420DD07B68D3F880301B68734AC9
:1058D000934206D07B68D3F880301B68704A9342AD
:1058E00006D17B68D3F880301B685B689BB205E00B
:1058F0007B68D3F880301B685B689BB2A7F8BE302A
:10590000B7F8BE30002B00F0AD817B68B3F85C3097
:10591000B7F8BE209A4280F0A5817B68B7F8BE2018
:10592000A3F85E207B68D3F88030DB69B3F5807F15
:1059300000F087807B681B68C7F88830D7F888300C
:1059400053E8003FC7F88430D7F8843023F48073DD
:10595000C7F8B8307B681B681A46D7F8B830C7F864
:105960009430C7F89020D7F89010D7F8942041E8E9
:105970000023C7F88C30D7F88C30002BDAD17B6845
:105980001B6808337B677B6F53E8003F3B673B6FC7
:1059900023F00103C7F8B4307B681B680833D7F8DD
:1059A000B420C7F88020FB67F96FD7F8802041E862
:1059B0000023BB67BB6F002BE1D17B681B680833FA
:1059C0003B663B6E53E8003FFB65FB6D23F04003F5
:1059D000C7F8B0307B681B680833D7F8B020FA6688
:1059E000BB66B96EFA6E41E800237B667B6E002BC6
:1059F000E3D17B682022C3F88C207B680022DA6622
:105A00007B681B68FB64FB6C53E8003FBB64BB6CAA
:105A100023F01003C7F8AC307B681B681A46D7F830
:105A2000AC30BB657A65796DBA6D41E800233B65A2
:105A30003B6D002BE4D17B68D3F880301846FCF72F
:105A40000DFA7B6802221A677B68B3F85C207B68DA
:105A5000B3F85E309BB2D31A9BB21946786800F057
:105A60001DF9FFE010000240280002404000024003
:105A7000580002407000024088000240A00002402E
:105A8000B8000240100402402804024040040240D2
:105A9000580402407004024088040240A0040240FE
:105AA000B80402407B68B3F85C207B68B3F85E30D2
:105AB0009BB2D31AA7F8CE307B68B3F85E309BB2A6
:105AC000002B00F0D180B7F8CE30002B00F0CC8056
:105AD0007B681B68BB63BB6B53E8003F7B637B6BDE
